{
  "_format": "hh-sol-artifact-1",
  "contractName": "NFT",
  "sourceName": "contracts/NFT.sol",
  "abi": [
    {
      "inputs": [],
      "stateMutability": "nonpayable",
      "type": "constructor"
    },
    {
      "anonymous": false,
      "inputs": [
        {
          "indexed": false,
          "internalType": "address",
          "name": "previousAdmin",
          "type": "address"
        },
        {
          "indexed": false,
          "internalType": "address",
          "name": "newAdmin",
          "type": "address"
        }
      ],
      "name": "AdminChanged",
      "type": "event"
    },
    {
      "anonymous": false,
      "inputs": [
        {
          "indexed": true,
          "internalType": "address",
          "name": "owner",
          "type": "address"
        },
        {
          "indexed": true,
          "internalType": "address",
          "name": "approved",
          "type": "address"
        },
        {
          "indexed": true,
          "internalType": "uint256",
          "name": "tokenId",
          "type": "uint256"
        }
      ],
      "name": "Approval",
      "type": "event"
    },
    {
      "anonymous": false,
      "inputs": [
        {
          "indexed": true,
          "internalType": "address",
          "name": "owner",
          "type": "address"
        },
        {
          "indexed": true,
          "internalType": "address",
          "name": "operator",
          "type": "address"
        },
        {
          "indexed": false,
          "internalType": "bool",
          "name": "approved",
          "type": "bool"
        }
      ],
      "name": "ApprovalForAll",
      "type": "event"
    },
    {
      "anonymous": false,
      "inputs": [
        {
          "indexed": true,
          "internalType": "address",
          "name": "beacon",
          "type": "address"
        }
      ],
      "name": "BeaconUpgraded",
      "type": "event"
    },
    {
      "anonymous": false,
      "inputs": [
        {
          "indexed": true,
          "internalType": "address",
          "name": "previousOwner",
          "type": "address"
        },
        {
          "indexed": true,
          "internalType": "address",
          "name": "newOwner",
          "type": "address"
        }
      ],
      "name": "OwnershipTransferred",
      "type": "event"
    },
    {
      "anonymous": false,
      "inputs": [
        {
          "indexed": true,
          "internalType": "address",
          "name": "from",
          "type": "address"
        },
        {
          "indexed": true,
          "internalType": "address",
          "name": "to",
          "type": "address"
        },
        {
          "indexed": true,
          "internalType": "uint256",
          "name": "tokenId",
          "type": "uint256"
        }
      ],
      "name": "Transfer",
      "type": "event"
    },
    {
      "anonymous": false,
      "inputs": [
        {
          "indexed": true,
          "internalType": "address",
          "name": "implementation",
          "type": "address"
        }
      ],
      "name": "Upgraded",
      "type": "event"
    },
    {
      "anonymous": false,
      "inputs": [
        {
          "indexed": false,
          "internalType": "uint256",
          "name": "value",
          "type": "uint256"
        }
      ],
      "name": "ValueChanged",
      "type": "event"
    },
    {
      "inputs": [],
      "name": "MAX_SUPPLY",
      "outputs": [
        {
          "internalType": "uint256",
          "name": "",
          "type": "uint256"
        }
      ],
      "stateMutability": "view",
      "type": "function"
    },
    {
      "inputs": [
        {
          "internalType": "address",
          "name": "to",
          "type": "address"
        },
        {
          "internalType": "uint256",
          "name": "tokenId",
          "type": "uint256"
        }
      ],
      "name": "approve",
      "outputs": [],
      "stateMutability": "nonpayable",
      "type": "function"
    },
    {
      "inputs": [
        {
          "internalType": "address",
          "name": "owner",
          "type": "address"
        }
      ],
      "name": "balanceOf",
      "outputs": [
        {
          "internalType": "uint256",
          "name": "",
          "type": "uint256"
        }
      ],
      "stateMutability": "view",
      "type": "function"
    },
    {
      "inputs": [
        {
          "internalType": "uint256",
          "name": "tokenId",
          "type": "uint256"
        }
      ],
      "name": "burn",
      "outputs": [],
      "stateMutability": "nonpayable",
      "type": "function"
    },
    {
      "inputs": [],
      "name": "contractURI",
      "outputs": [
        {
          "internalType": "string",
          "name": "",
          "type": "string"
        }
      ],
      "stateMutability": "view",
      "type": "function"
    },
    {
      "inputs": [
        {
          "internalType": "string",
          "name": "tokenURIHash",
          "type": "string"
        }
      ],
      "name": "createToken",
      "outputs": [
        {
          "internalType": "uint256",
          "name": "",
          "type": "uint256"
        }
      ],
      "stateMutability": "payable",
      "type": "function"
    },
    {
      "inputs": [
        {
          "internalType": "uint256",
          "name": "tokenId",
          "type": "uint256"
        }
      ],
      "name": "getApproved",
      "outputs": [
        {
          "internalType": "address",
          "name": "",
          "type": "address"
        }
      ],
      "stateMutability": "view",
      "type": "function"
    },
    {
      "inputs": [],
      "name": "getListingPrice",
      "outputs": [
        {
          "internalType": "uint256",
          "name": "",
          "type": "uint256"
        }
      ],
      "stateMutability": "view",
      "type": "function"
    },
    {
      "inputs": [],
      "name": "incrementListingPrice",
      "outputs": [],
      "stateMutability": "nonpayable",
      "type": "function"
    },
    {
      "inputs": [
        {
          "internalType": "address",
          "name": "_sellerAddress",
          "type": "address"
        },
        {
          "internalType": "string",
          "name": "name",
          "type": "string"
        },
        {
          "internalType": "string",
          "name": "symbol",
          "type": "string"
        }
      ],
      "name": "initialize",
      "outputs": [],
      "stateMutability": "nonpayable",
      "type": "function"
    },
    {
      "inputs": [
        {
          "internalType": "address",
          "name": "owner",
          "type": "address"
        },
        {
          "internalType": "address",
          "name": "operator",
          "type": "address"
        }
      ],
      "name": "isApprovedForAll",
      "outputs": [
        {
          "internalType": "bool",
          "name": "",
          "type": "bool"
        }
      ],
      "stateMutability": "view",
      "type": "function"
    },
    {
      "inputs": [],
      "name": "name",
      "outputs": [
        {
          "internalType": "string",
          "name": "",
          "type": "string"
        }
      ],
      "stateMutability": "view",
      "type": "function"
    },
    {
      "inputs": [],
      "name": "owner",
      "outputs": [
        {
          "internalType": "address",
          "name": "",
          "type": "address"
        }
      ],
      "stateMutability": "view",
      "type": "function"
    },
    {
      "inputs": [
        {
          "internalType": "uint256",
          "name": "tokenId",
          "type": "uint256"
        }
      ],
      "name": "ownerOf",
      "outputs": [
        {
          "internalType": "address",
          "name": "",
          "type": "address"
        }
      ],
      "stateMutability": "view",
      "type": "function"
    },
    {
      "inputs": [],
      "name": "renounceOwnership",
      "outputs": [],
      "stateMutability": "nonpayable",
      "type": "function"
    },
    {
      "inputs": [
        {
          "internalType": "address",
          "name": "from",
          "type": "address"
        },
        {
          "internalType": "address",
          "name": "to",
          "type": "address"
        },
        {
          "internalType": "uint256",
          "name": "tokenId",
          "type": "uint256"
        }
      ],
      "name": "safeTransferFrom",
      "outputs": [],
      "stateMutability": "nonpayable",
      "type": "function"
    },
    {
      "inputs": [
        {
          "internalType": "address",
          "name": "from",
          "type": "address"
        },
        {
          "internalType": "address",
          "name": "to",
          "type": "address"
        },
        {
          "internalType": "uint256",
          "name": "tokenId",
          "type": "uint256"
        },
        {
          "internalType": "bytes",
          "name": "_data",
          "type": "bytes"
        }
      ],
      "name": "safeTransferFrom",
      "outputs": [],
      "stateMutability": "nonpayable",
      "type": "function"
    },
    {
      "inputs": [
        {
          "internalType": "address",
          "name": "operator",
          "type": "address"
        },
        {
          "internalType": "bool",
          "name": "approved",
          "type": "bool"
        }
      ],
      "name": "setApprovalForAll",
      "outputs": [],
      "stateMutability": "nonpayable",
      "type": "function"
    },
    {
      "inputs": [
        {
          "internalType": "string",
          "name": "newContractURIHash",
          "type": "string"
        }
      ],
      "name": "setContractURIHash",
      "outputs": [],
      "stateMutability": "nonpayable",
      "type": "function"
    },
    {
      "inputs": [
        {
          "internalType": "uint256",
          "name": "_listingPrice",
          "type": "uint256"
        }
      ],
      "name": "setListingPrice",
      "outputs": [],
      "stateMutability": "nonpayable",
      "type": "function"
    },
    {
      "inputs": [
        {
          "internalType": "bytes4",
          "name": "interfaceId",
          "type": "bytes4"
        }
      ],
      "name": "supportsInterface",
      "outputs": [
        {
          "internalType": "bool",
          "name": "",
          "type": "bool"
        }
      ],
      "stateMutability": "view",
      "type": "function"
    },
    {
      "inputs": [],
      "name": "symbol",
      "outputs": [
        {
          "internalType": "string",
          "name": "",
          "type": "string"
        }
      ],
      "stateMutability": "view",
      "type": "function"
    },
    {
      "inputs": [
        {
          "internalType": "uint256",
          "name": "index",
          "type": "uint256"
        }
      ],
      "name": "tokenByIndex",
      "outputs": [
        {
          "internalType": "uint256",
          "name": "",
          "type": "uint256"
        }
      ],
      "stateMutability": "view",
      "type": "function"
    },
    {
      "inputs": [
        {
          "internalType": "address",
          "name": "owner",
          "type": "address"
        },
        {
          "internalType": "uint256",
          "name": "index",
          "type": "uint256"
        }
      ],
      "name": "tokenOfOwnerByIndex",
      "outputs": [
        {
          "internalType": "uint256",
          "name": "",
          "type": "uint256"
        }
      ],
      "stateMutability": "view",
      "type": "function"
    },
    {
      "inputs": [
        {
          "internalType": "uint256",
          "name": "tokenId",
          "type": "uint256"
        }
      ],
      "name": "tokenURI",
      "outputs": [
        {
          "internalType": "string",
          "name": "",
          "type": "string"
        }
      ],
      "stateMutability": "view",
      "type": "function"
    },
    {
      "inputs": [
        {
          "internalType": "address",
          "name": "_owner",
          "type": "address"
        }
      ],
      "name": "tokensOfOwner",
      "outputs": [
        {
          "internalType": "uint256[]",
          "name": "ownerTokens",
          "type": "uint256[]"
        }
      ],
      "stateMutability": "view",
      "type": "function"
    },
    {
      "inputs": [],
      "name": "totalSupply",
      "outputs": [
        {
          "internalType": "uint256",
          "name": "",
          "type": "uint256"
        }
      ],
      "stateMutability": "view",
      "type": "function"
    },
    {
      "inputs": [
        {
          "internalType": "address",
          "name": "from",
          "type": "address"
        },
        {
          "internalType": "address",
          "name": "to",
          "type": "address"
        },
        {
          "internalType": "uint256",
          "name": "tokenId",
          "type": "uint256"
        }
      ],
      "name": "transferFrom",
      "outputs": [],
      "stateMutability": "nonpayable",
      "type": "function"
    },
    {
      "inputs": [
        {
          "internalType": "address",
          "name": "newOwner",
          "type": "address"
        }
      ],
      "name": "transferOwnership",
      "outputs": [],
      "stateMutability": "nonpayable",
      "type": "function"
    },
    {
      "inputs": [
        {
          "internalType": "address",
          "name": "newImplementation",
          "type": "address"
        }
      ],
      "name": "upgradeTo",
      "outputs": [],
      "stateMutability": "nonpayable",
      "type": "function"
    },
    {
      "inputs": [
        {
          "internalType": "address",
          "name": "newImplementation",
          "type": "address"
        },
        {
          "internalType": "bytes",
          "name": "data",
          "type": "bytes"
        }
      ],
      "name": "upgradeToAndCall",
      "outputs": [],
      "stateMutability": "payable",
      "type": "function"
    }
  ],
  "bytecode": "0x60a06040523060601b6080523480156200001857600080fd5b50600054610100900460ff16620000365760005460ff161562000040565b62000040620000e5565b620000a85760405162461bcd60e51b815260206004820152602e60248201527f496e697469616c697a61626c653a20636f6e747261637420697320616c72656160448201526d191e481a5b9a5d1a585b1a5e995960921b606482015260840160405180910390fd5b600054610100900460ff16158015620000cb576000805461ffff19166101011790555b8015620000de576000805461ff00191690555b5062000109565b6000620000fd306200010360201b620012d31760201c565b15905090565b3b151590565b60805160601c61302c6200013d600039600081816108e20152818161092201528181610c470152610c87015261302c6000f3fe6080604052600436106101d85760003560e01c80636352211e11610102578063a22cb46511610095578063c87b56dd11610064578063c87b56dd1461052b578063e8a3d4851461054b578063e985e9c514610560578063f2fde38b146105a957600080fd5b8063a22cb465146104b6578063b88d4fde146104d6578063baedc1c4146104f6578063bc9113391461051657600080fd5b80638462151c116100d15780638462151c146104355780638da5cb5b14610462578063906571471461048157806395d89b41146104a157600080fd5b80636352211e146103c057806370a08231146103e0578063715018a6146104005780637c726b691461041557600080fd5b80632f745c591161017a57806342966c681161014957806342966c681461035a57806345576f941461037a5780634f1ef2861461038d5780634f6ccce7146103a057600080fd5b80632f745c59146102e457806332cb6b0c146103045780633659cfe61461031a57806342842e0e1461033a57600080fd5b8063095ea7b3116101b6578063095ea7b31461026c57806312e855851461028e57806318160ddd146102ae57806323b872dd146102c457600080fd5b806301ffc9a7146101dd57806306fdde0314610212578063081812fc14610234575b600080fd5b3480156101e957600080fd5b506101fd6101f8366004612a73565b6105c9565b60405190151581526020015b60405180910390f35b34801561021e57600080fd5b506102276105da565b6040516102099190612cd0565b34801561024057600080fd5b5061025461024f366004612ade565b61066c565b6040516001600160a01b039091168152602001610209565b34801561027857600080fd5b5061028c610287366004612a4a565b6106f9565b005b34801561029a57600080fd5b506101c5545b604051908152602001610209565b3480156102ba57600080fd5b50610193546102a0565b3480156102d057600080fd5b5061028c6102df3660046128b2565b61080f565b3480156102f057600080fd5b506102a06102ff366004612a4a565b610840565b34801561031057600080fd5b506102a06122b881565b34801561032657600080fd5b5061028c610335366004612866565b6108d7565b34801561034657600080fd5b5061028c6103553660046128b2565b6109a0565b34801561036657600080fd5b5061028c610375366004612ade565b6109bb565b6102a0610388366004612aab565b610a1a565b61028c61039b36600461298d565b610c3c565b3480156103ac57600080fd5b506102a06103bb366004612ade565b610cf6565b3480156103cc57600080fd5b506102546103db366004612ade565b610d99565b3480156103ec57600080fd5b506102a06103fb366004612866565b610e10565b34801561040c57600080fd5b5061028c610e97565b34801561042157600080fd5b5061028c610430366004612ade565b610ece565b34801561044157600080fd5b50610455610450366004612866565b610eff565b6040516102099190612c8c565b34801561046e57600080fd5b5061015f546001600160a01b0316610254565b34801561048d57600080fd5b5061028c61049c3660046129d9565b610fd9565b3480156104ad57600080fd5b50610227611100565b3480156104c257600080fd5b5061028c6104d1366004612953565b61110f565b3480156104e257600080fd5b5061028c6104f13660046128ed565b61111a565b34801561050257600080fd5b5061028c610511366004612aab565b61114c565b34801561052257600080fd5b5061028c61118b565b34801561053757600080fd5b50610227610546366004612ade565b611206565b34801561055757600080fd5b50610227611211565b34801561056c57600080fd5b506101fd61057b366004612880565b6001600160a01b039182166000908152609c6020908152604080832093909416825291909152205460ff1690565b3480156105b557600080fd5b5061028c6105c4366004612866565b61123a565b60006105d4826112d9565b92915050565b6060609780546105e990612f0d565b80601f016020809104026020016040519081016040528092919081815260200182805461061590612f0d565b80156106625780601f1061063757610100808354040283529160200191610662565b820191906000526020600020905b81548152906001019060200180831161064557829003601f168201915b5050505050905090565b6000610677826112fe565b6106dd5760405162461bcd60e51b815260206004820152602c60248201527f4552433732313a20617070726f76656420717565727920666f72206e6f6e657860448201526b34b9ba32b73a103a37b5b2b760a11b60648201526084015b60405180910390fd5b506000908152609b60205260409020546001600160a01b031690565b600061070482610d99565b9050806001600160a01b0316836001600160a01b031614156107725760405162461bcd60e51b815260206004820152602160248201527f4552433732313a20617070726f76616c20746f2063757272656e74206f776e656044820152603960f91b60648201526084016106d4565b336001600160a01b038216148061078e575061078e813361057b565b6108005760405162461bcd60e51b815260206004820152603860248201527f4552433732313a20617070726f76652063616c6c6572206973206e6f74206f7760448201527f6e6572206e6f7220617070726f76656420666f7220616c6c000000000000000060648201526084016106d4565b61080a838361131b565b505050565b6108193382611389565b6108355760405162461bcd60e51b81526004016106d490612e02565b61080a838383611473565b600061084b83610e10565b82106108ad5760405162461bcd60e51b815260206004820152602b60248201527f455243373231456e756d657261626c653a206f776e657220696e646578206f7560448201526a74206f6620626f756e647360a81b60648201526084016106d4565b506001600160a01b0391909116600090815261019160209081526040808320938352929052205490565b306001600160a01b037f00000000000000000000000000000000000000000000000000000000000000001614156109205760405162461bcd60e51b81526004016106d490612d35565b7f00000000000000000000000000000000000000000000000000000000000000006001600160a01b031661095261161e565b6001600160a01b0316146109785760405162461bcd60e51b81526004016106d490612d81565b6109818161164c565b6040805160008082526020820190925261099d91839190611677565b50565b61080a8383836040518060200160405280600081525061111a565b336109c582610d99565b6001600160a01b031614610a115760405162461bcd60e51b815260206004820152601360248201527221b0b63632b91034b9903737ba1027bbb732b960691b60448201526064016106d4565b61099d816117c2565b600060026001541415610a6f5760405162461bcd60e51b815260206004820152601f60248201527f5265656e7472616e637947756172643a207265656e7472616e742063616c6c0060448201526064016106d4565b60026001556101c554341015610af75760405162461bcd60e51b815260206004820152604160248201527f506c65617365207375626d697420746865206c697374696e672070726963652060448201527f696e206f7264657220746f20636f6d706c6574652074686520707572636861736064820152606560f81b608482015260a4016106d4565b610b066101c380546001019055565b6000610b126101c35490565b90506122b8811115610b5a5760405162461bcd60e51b8152602060048201526011602482015270105b1b081d1bdad95b9cc81b5a5b9d1959607a1b60448201526064016106d4565b600083604051602001610b6d9190612b6d565b60408051808303601f19018152908290526101c65490925034916000916001600160a01b03169083908381818185875af1925050503d8060008114610bce576040519150601f19603f3d011682016040523d82523d6000602084013e610bd3565b606091505b5050905080610c1b5760405162461bcd60e51b81526020600482015260146024820152732330b4b632b2103a379039b2b7321022ba3432b960611b60448201526064016106d4565b610c2533856117cb565b610c2f84846117e5565b5050600180555092915050565b306001600160a01b037f0000000000000000000000000000000000000000000000000000000000000000161415610c855760405162461bcd60e51b81526004016106d490612d35565b7f00000000000000000000000000000000000000000000000000000000000000006001600160a01b0316610cb761161e565b6001600160a01b031614610cdd5760405162461bcd60e51b81526004016106d490612d81565b610ce68261164c565b610cf282826001611677565b5050565b6000610d026101935490565b8210610d655760405162461bcd60e51b815260206004820152602c60248201527f455243373231456e756d657261626c653a20676c6f62616c20696e646578206f60448201526b7574206f6620626f756e647360a01b60648201526084016106d4565b6101938281548110610d8757634e487b7160e01b600052603260045260246000fd5b90600052602060002001549050919050565b6000818152609960205260408120546001600160a01b0316806105d45760405162461bcd60e51b815260206004820152602960248201527f4552433732313a206f776e657220717565727920666f72206e6f6e657869737460448201526832b73a103a37b5b2b760b91b60648201526084016106d4565b60006001600160a01b038216610e7b5760405162461bcd60e51b815260206004820152602a60248201527f4552433732313a2062616c616e636520717565727920666f7220746865207a65604482015269726f206164647265737360b01b60648201526084016106d4565b506001600160a01b03166000908152609a602052604090205490565b61015f546001600160a01b03163314610ec25760405162461bcd60e51b81526004016106d490612dcd565b610ecc6000611870565b565b61015f546001600160a01b03163314610ef95760405162461bcd60e51b81526004016106d490612dcd565b6101c555565b60606000610f0c83610e10565b905060008167ffffffffffffffff811115610f3757634e487b7160e01b600052604160045260246000fd5b604051908082528060200260200182016040528015610f60578160200160208202803683370190505b50905081610f7f57505060408051600081526020810190915292915050565b60005b82811015610fd157610f948582610840565b828281518110610fb457634e487b7160e01b600052603260045260246000fd5b602090810291909101015280610fc981612f48565b915050610f82565b509392505050565b600054610100900460ff16610ff45760005460ff1615610ff8565b303b155b61105b5760405162461bcd60e51b815260206004820152602e60248201527f496e697469616c697a61626c653a20636f6e747261637420697320616c72656160448201526d191e481a5b9a5d1a585b1a5e995960921b60648201526084016106d4565b600054610100900460ff1615801561107d576000805461ffff19166101011790555b61108783836118c3565b61108f611904565b611097611943565b61109f61197a565b6101c680546001600160a01b0319166001600160a01b0386161790556040805160208101918290526000908190526110da916101c4916126f4565b506703782dace9d900006101c55580156110fa576000805461ff00191690555b50505050565b6060609880546105e990612f0d565b610cf23383836119a1565b6111243383611389565b6111405760405162461bcd60e51b81526004016106d490612e02565b6110fa84848484611a70565b61015f546001600160a01b031633146111775760405162461bcd60e51b81526004016106d490612dcd565b8051610cf2906101c49060208401906126f4565b61015f546001600160a01b031633146111b65760405162461bcd60e51b81526004016106d490612dcd565b6101c5546111cb90662386f26fc10000612e9e565b6101c58190556040519081527f93fe6d397c74fdf1402a8b72e47b68512f0510d7b98a4bc4cbdf6ac7108b3c599060200160405180910390a1565b60606105d482611aa3565b60606101c46040516020016112269190612b9c565b604051602081830303815290604052905090565b61015f546001600160a01b031633146112655760405162461bcd60e51b81526004016106d490612dcd565b6001600160a01b0381166112ca5760405162461bcd60e51b815260206004820152602660248201527f4f776e61626c653a206e6577206f776e657220697320746865207a65726f206160448201526564647265737360d01b60648201526084016106d4565b61099d81611870565b3b151590565b60006001600160e01b0319821663780e9d6360e01b14806105d457506105d482611c12565b6000908152609960205260409020546001600160a01b0316151590565b6000818152609b6020526040902080546001600160a01b0319166001600160a01b038416908117909155819061135082610d99565b6001600160a01b03167f8c5be1e5ebec7d5bd14f71427d1e84f3dd0314c0f7b2291e5b200ac8c7c3b92560405160405180910390a45050565b6000611394826112fe565b6113f55760405162461bcd60e51b815260206004820152602c60248201527f4552433732313a206f70657261746f7220717565727920666f72206e6f6e657860448201526b34b9ba32b73a103a37b5b2b760a11b60648201526084016106d4565b600061140083610d99565b9050806001600160a01b0316846001600160a01b0316148061143b5750836001600160a01b03166114308461066c565b6001600160a01b0316145b8061146b57506001600160a01b038082166000908152609c602090815260408083209388168352929052205460ff165b949350505050565b826001600160a01b031661148682610d99565b6001600160a01b0316146114ee5760405162461bcd60e51b815260206004820152602960248201527f4552433732313a207472616e73666572206f6620746f6b656e2074686174206960448201526839903737ba1037bbb760b91b60648201526084016106d4565b6001600160a01b0382166115505760405162461bcd60e51b8152602060048201526024808201527f4552433732313a207472616e7366657220746f20746865207a65726f206164646044820152637265737360e01b60648201526084016106d4565b61155b838383611c62565b61156660008261131b565b6001600160a01b0383166000908152609a6020526040812080546001929061158f908490612eca565b90915550506001600160a01b0382166000908152609a602052604081208054600192906115bd908490612e9e565b909155505060008181526099602052604080822080546001600160a01b0319166001600160a01b0386811691821790925591518493918716917fddf252ad1be2c89b69c2b068fc378daa952ba7f163c4a11628f55a4df523b3ef91a4505050565b7f360894a13ba1a3210667c828492db98dca3e2076cc3735a920a3ca505d382bbc546001600160a01b031690565b61015f546001600160a01b0316331461099d5760405162461bcd60e51b81526004016106d490612dcd565b600061168161161e565b905061168c84611c6d565b6000835111806116995750815b156116aa576116a88484611d12565b505b7f4910fdfa16fed3260ed0e7147f7cc6da11a60208b5b9406d12a635614ffd9143805460ff166117bb57805460ff191660011781556040516001600160a01b038316602482015261172990869060440160408051601f198184030181529190526020810180516001600160e01b0316631b2ce7f360e11b179052611d12565b50805460ff1916815561173a61161e565b6001600160a01b0316826001600160a01b0316146117b25760405162461bcd60e51b815260206004820152602f60248201527f45524331393637557067726164653a207570677261646520627265616b73206660448201526e75727468657220757067726164657360881b60648201526084016106d4565b6117bb85611dfd565b5050505050565b61099d81611e3d565b610cf2828260405180602001604052806000815250611e7d565b6117ee826112fe565b6118515760405162461bcd60e51b815260206004820152602e60248201527f45524337323155524953746f726167653a2055524920736574206f66206e6f6e60448201526d32bc34b9ba32b73a103a37b5b2b760911b60648201526084016106d4565b600082815260c960209081526040909120825161080a928401906126f4565b61015f80546001600160a01b038381166001600160a01b0319831681179093556040519116919082907f8be0079c531659141344cd1fd0a4f28419497f9722a3daafe3b4186f6b6457e090600090a35050565b600054610100900460ff166118ea5760405162461bcd60e51b81526004016106d490612e53565b6118f2611eb0565b6118fa611eb0565b610cf28282611ed7565b600054610100900460ff1661192b5760405162461bcd60e51b81526004016106d490612e53565b611933611eb0565b61193b611eb0565b610ecc611eb0565b600054610100900460ff1661196a5760405162461bcd60e51b81526004016106d490612e53565b611972611eb0565b610ecc611f25565b600054610100900460ff166119335760405162461bcd60e51b81526004016106d490612e53565b816001600160a01b0316836001600160a01b03161415611a035760405162461bcd60e51b815260206004820152601960248201527f4552433732313a20617070726f766520746f2063616c6c65720000000000000060448201526064016106d4565b6001600160a01b038381166000818152609c6020908152604080832094871680845294825291829020805460ff191686151590811790915591519182527f17307eab39ab6107e8899845ad3d59bd9653f200f220920489ca2b5937696c31910160405180910390a3505050565b611a7b848484611473565b611a8784848484611f55565b6110fa5760405162461bcd60e51b81526004016106d490612ce3565b6060611aae826112fe565b611b145760405162461bcd60e51b815260206004820152603160248201527f45524337323155524953746f726167653a2055524920717565727920666f72206044820152703737b732bc34b9ba32b73a103a37b5b2b760791b60648201526084016106d4565b600082815260c9602052604081208054611b2d90612f0d565b80601f0160208091040260200160405190810160405280929190818152602001828054611b5990612f0d565b8015611ba65780601f10611b7b57610100808354040283529160200191611ba6565b820191906000526020600020905b815481529060010190602001808311611b8957829003601f168201915b505050505090506000611bc460408051602081019091526000815290565b9050805160001415611bd7575092915050565b815115611c09578082604051602001611bf1929190612b3e565b60405160208183030381529060405292505050919050565b61146b84612062565b60006001600160e01b031982166380ac58cd60e01b1480611c4357506001600160e01b03198216635b5e139f60e01b145b806105d457506301ffc9a760e01b6001600160e01b03198316146105d4565b61080a83838361213a565b803b611cd15760405162461bcd60e51b815260206004820152602d60248201527f455243313936373a206e657720696d706c656d656e746174696f6e206973206e60448201526c1bdd08184818dbdb9d1c9858dd609a1b60648201526084016106d4565b7f360894a13ba1a3210667c828492db98dca3e2076cc3735a920a3ca505d382bbc80546001600160a01b0319166001600160a01b0392909216919091179055565b6060823b611d715760405162461bcd60e51b815260206004820152602660248201527f416464726573733a2064656c65676174652063616c6c20746f206e6f6e2d636f6044820152651b9d1c9858dd60d21b60648201526084016106d4565b600080846001600160a01b031684604051611d8c9190612b22565b600060405180830381855af49150503d8060008114611dc7576040519150601f19603f3d011682016040523d82523d6000602084013e611dcc565b606091505b5091509150611df48282604051806060016040528060278152602001612fd0602791396121f4565b95945050505050565b611e0681611c6d565b6040516001600160a01b038216907fbc7cd75a20ee27fd9adebab32041f755214dbc6bffa90cc0225b39da2e5c2d3b90600090a250565b611e468161222d565b600081815260c9602052604090208054611e5f90612f0d565b15905061099d57600081815260c96020526040812061099d91612778565b611e8783836122d4565b611e946000848484611f55565b61080a5760405162461bcd60e51b81526004016106d490612ce3565b600054610100900460ff16610ecc5760405162461bcd60e51b81526004016106d490612e53565b600054610100900460ff16611efe5760405162461bcd60e51b81526004016106d490612e53565b8151611f119060979060208501906126f4565b50805161080a9060989060208401906126f4565b600054610100900460ff16611f4c5760405162461bcd60e51b81526004016106d490612e53565b610ecc33611870565b60006001600160a01b0384163b1561205757604051630a85bd0160e11b81526001600160a01b0385169063150b7a0290611f99903390899088908890600401612c4f565b602060405180830381600087803b158015611fb357600080fd5b505af1925050508015611fe3575060408051601f3d908101601f19168201909252611fe091810190612a8f565b60015b61203d573d808015612011576040519150601f19603f3d011682016040523d82523d6000602084013e612016565b606091505b5080516120355760405162461bcd60e51b81526004016106d490612ce3565b805181602001fd5b6001600160e01b031916630a85bd0160e11b14905061146b565b506001949350505050565b606061206d826112fe565b6120d15760405162461bcd60e51b815260206004820152602f60248201527f4552433732314d657461646174613a2055524920717565727920666f72206e6f60448201526e3732bc34b9ba32b73a103a37b5b2b760891b60648201526084016106d4565b60006120e860408051602081019091526000815290565b905060008151116121085760405180602001604052806000815250612133565b8061211284612413565b604051602001612123929190612b3e565b6040516020818303038152906040525b9392505050565b6001600160a01b03831661219757612192816101938054600083815261019460205260408120829055600182018355919091527ffc8af01f449989052b52093a58fc9f42d0b11f0c6dd5dca0463dab62346ccc680155565b6121ba565b816001600160a01b0316836001600160a01b0316146121ba576121ba838261252d565b6001600160a01b0382166121d15761080a816125cf565b826001600160a01b0316826001600160a01b03161461080a5761080a82826126ae565b60608315612203575081612133565b8251156122135782518084602001fd5b8160405162461bcd60e51b81526004016106d49190612cd0565b600061223882610d99565b905061224681600084611c62565b61225160008361131b565b6001600160a01b0381166000908152609a6020526040812080546001929061227a908490612eca565b909155505060008281526099602052604080822080546001600160a01b0319169055518391906001600160a01b038416907fddf252ad1be2c89b69c2b068fc378daa952ba7f163c4a11628f55a4df523b3ef908390a45050565b6001600160a01b03821661232a5760405162461bcd60e51b815260206004820181905260248201527f4552433732313a206d696e7420746f20746865207a65726f206164647265737360448201526064016106d4565b612333816112fe565b156123805760405162461bcd60e51b815260206004820152601c60248201527f4552433732313a20746f6b656e20616c7265616479206d696e7465640000000060448201526064016106d4565b61238c60008383611c62565b6001600160a01b0382166000908152609a602052604081208054600192906123b5908490612e9e565b909155505060008181526099602052604080822080546001600160a01b0319166001600160a01b03861690811790915590518392907fddf252ad1be2c89b69c2b068fc378daa952ba7f163c4a11628f55a4df523b3ef908290a45050565b6060816124375750506040805180820190915260018152600360fc1b602082015290565b8160005b8115612461578061244b81612f48565b915061245a9050600a83612eb6565b915061243b565b60008167ffffffffffffffff81111561248a57634e487b7160e01b600052604160045260246000fd5b6040519080825280601f01601f1916602001820160405280156124b4576020820181803683370190505b5090505b841561146b576124c9600183612eca565b91506124d6600a86612f63565b6124e1906030612e9e565b60f81b81838151811061250457634e487b7160e01b600052603260045260246000fd5b60200101906001600160f81b031916908160001a905350612526600a86612eb6565b94506124b8565b6000600161253a84610e10565b6125449190612eca565b6000838152610192602052604090205490915080821461259a576001600160a01b038416600090815261019160209081526040808320858452825280832054848452818420819055835261019290915290208190555b506000918252610192602090815260408084208490556001600160a01b03909416835261019181528383209183525290812055565b610193546000906125e290600190612eca565b60008381526101946020526040812054610193805493945090928490811061261a57634e487b7160e01b600052603260045260246000fd5b9060005260206000200154905080610193838154811061264a57634e487b7160e01b600052603260045260246000fd5b6000918252602080832090910192909255828152610194909152604080822084905585825281205561019380548061269257634e487b7160e01b600052603160045260246000fd5b6001900381819060005260206000200160009055905550505050565b60006126b983610e10565b6001600160a01b0390931660009081526101916020908152604080832086845282528083208590559382526101929052919091209190915550565b82805461270090612f0d565b90600052602060002090601f0160209004810192826127225760008555612768565b82601f1061273b57805160ff1916838001178555612768565b82800160010185558215612768579182015b8281111561276857825182559160200191906001019061274d565b506127749291506127ae565b5090565b50805461278490612f0d565b6000825580601f10612794575050565b601f01602090049060005260206000209081019061099d91905b5b8082111561277457600081556001016127af565b80356001600160a01b03811681146127da57600080fd5b919050565b600082601f8301126127ef578081fd5b813567ffffffffffffffff8082111561280a5761280a612fa3565b604051601f8301601f19908116603f0116810190828211818310171561283257612832612fa3565b8160405283815286602085880101111561284a578485fd5b8360208701602083013792830160200193909352509392505050565b600060208284031215612877578081fd5b612133826127c3565b60008060408385031215612892578081fd5b61289b836127c3565b91506128a9602084016127c3565b90509250929050565b6000806000606084860312156128c6578081fd5b6128cf846127c3565b92506128dd602085016127c3565b9150604084013590509250925092565b60008060008060808587031215612902578081fd5b61290b856127c3565b9350612919602086016127c3565b925060408501359150606085013567ffffffffffffffff81111561293b578182fd5b612947878288016127df565b91505092959194509250565b60008060408385031215612965578182fd5b61296e836127c3565b915060208301358015158114612982578182fd5b809150509250929050565b6000806040838503121561299f578182fd5b6129a8836127c3565b9150602083013567ffffffffffffffff8111156129c3578182fd5b6129cf858286016127df565b9150509250929050565b6000806000606084860312156129ed578283fd5b6129f6846127c3565b9250602084013567ffffffffffffffff80821115612a12578384fd5b612a1e878388016127df565b93506040860135915080821115612a33578283fd5b50612a40868287016127df565b9150509250925092565b60008060408385031215612a5c578182fd5b612a65836127c3565b946020939093013593505050565b600060208284031215612a84578081fd5b813561213381612fb9565b600060208284031215612aa0578081fd5b815161213381612fb9565b600060208284031215612abc578081fd5b813567ffffffffffffffff811115612ad2578182fd5b61146b848285016127df565b600060208284031215612aef578081fd5b5035919050565b60008151808452612b0e816020860160208601612ee1565b601f01601f19169290920160200192915050565b60008251612b34818460208701612ee1565b9190910192915050565b60008351612b50818460208801612ee1565b835190830190612b64818360208801612ee1565b01949350505050565b66697066733a2f2f60c81b815260008251612b8f816007850160208701612ee1565b9190910160070192915050565b66697066733a2f2f60c81b81526000600781845483600182811c915080831680612bc757607f831692505b6020808410821415612be757634e487b7160e01b88526022600452602488fd5b818015612bfb5760018114612c1057612c40565b60ff1986168a890152848a0188019650612c40565b60008b815260209020895b86811015612c365781548c82018b0152908501908301612c1b565b505087858b010196505b50949998505050505050505050565b6001600160a01b0385811682528416602082015260408101839052608060608201819052600090612c8290830184612af6565b9695505050505050565b6020808252825182820181905260009190848201906040850190845b81811015612cc457835183529284019291840191600101612ca8565b50909695505050505050565b6020815260006121336020830184612af6565b60208082526032908201527f4552433732313a207472616e7366657220746f206e6f6e20455243373231526560408201527131b2b4bb32b91034b6b83632b6b2b73a32b960711b606082015260800190565b6020808252602c908201527f46756e6374696f6e206d7573742062652063616c6c6564207468726f7567682060408201526b19195b1959d85d1958d85b1b60a21b606082015260800190565b6020808252602c908201527f46756e6374696f6e206d7573742062652063616c6c6564207468726f7567682060408201526b6163746976652070726f787960a01b606082015260800190565b6020808252818101527f4f776e61626c653a2063616c6c6572206973206e6f7420746865206f776e6572604082015260600190565b60208082526031908201527f4552433732313a207472616e736665722063616c6c6572206973206e6f74206f6040820152701ddb995c881b9bdc88185c1c1c9bdd9959607a1b606082015260800190565b6020808252602b908201527f496e697469616c697a61626c653a20636f6e7472616374206973206e6f74206960408201526a6e697469616c697a696e6760a81b606082015260800190565b60008219821115612eb157612eb1612f77565b500190565b600082612ec557612ec5612f8d565b500490565b600082821015612edc57612edc612f77565b500390565b60005b83811015612efc578181015183820152602001612ee4565b838111156110fa5750506000910152565b600181811c90821680612f2157607f821691505b60208210811415612f4257634e487b7160e01b600052602260045260246000fd5b50919050565b6000600019821415612f5c57612f5c612f77565b5060010190565b600082612f7257612f72612f8d565b500690565b634e487b7160e01b600052601160045260246000fd5b634e487b7160e01b600052601260045260246000fd5b634e487b7160e01b600052604160045260246000fd5b6001600160e01b03198116811461099d57600080fdfe416464726573733a206c6f772d6c6576656c2064656c65676174652063616c6c206661696c6564a2646970667358221220d47f04446bf174346023659dd5cfb78eb6f315d4e0769bb57d02f5ecbec1ce5f64736f6c63430008040033",
  "linkReferences": {},
  "deployedLinkReferences": {}
}