{
  "_format": "hh-sol-artifact-1",
  "contractName": "NFT",
  "sourceName": "contracts/NFT.sol",
  "abi": [
    {
      "inputs": [],
      "stateMutability": "nonpayable",
      "type": "constructor"
    },
    {
      "anonymous": false,
      "inputs": [
        {
          "indexed": false,
          "internalType": "address",
          "name": "previousAdmin",
          "type": "address"
        },
        {
          "indexed": false,
          "internalType": "address",
          "name": "newAdmin",
          "type": "address"
        }
      ],
      "name": "AdminChanged",
      "type": "event"
    },
    {
      "anonymous": false,
      "inputs": [
        {
          "indexed": true,
          "internalType": "address",
          "name": "owner",
          "type": "address"
        },
        {
          "indexed": true,
          "internalType": "address",
          "name": "approved",
          "type": "address"
        },
        {
          "indexed": true,
          "internalType": "uint256",
          "name": "tokenId",
          "type": "uint256"
        }
      ],
      "name": "Approval",
      "type": "event"
    },
    {
      "anonymous": false,
      "inputs": [
        {
          "indexed": true,
          "internalType": "address",
          "name": "owner",
          "type": "address"
        },
        {
          "indexed": true,
          "internalType": "address",
          "name": "operator",
          "type": "address"
        },
        {
          "indexed": false,
          "internalType": "bool",
          "name": "approved",
          "type": "bool"
        }
      ],
      "name": "ApprovalForAll",
      "type": "event"
    },
    {
      "anonymous": false,
      "inputs": [
        {
          "indexed": true,
          "internalType": "address",
          "name": "beacon",
          "type": "address"
        }
      ],
      "name": "BeaconUpgraded",
      "type": "event"
    },
    {
      "anonymous": false,
      "inputs": [
        {
          "indexed": true,
          "internalType": "address",
          "name": "previousOwner",
          "type": "address"
        },
        {
          "indexed": true,
          "internalType": "address",
          "name": "newOwner",
          "type": "address"
        }
      ],
      "name": "OwnershipTransferred",
      "type": "event"
    },
    {
      "anonymous": false,
      "inputs": [
        {
          "indexed": true,
          "internalType": "address",
          "name": "from",
          "type": "address"
        },
        {
          "indexed": true,
          "internalType": "address",
          "name": "to",
          "type": "address"
        },
        {
          "indexed": true,
          "internalType": "uint256",
          "name": "tokenId",
          "type": "uint256"
        }
      ],
      "name": "Transfer",
      "type": "event"
    },
    {
      "anonymous": false,
      "inputs": [
        {
          "indexed": true,
          "internalType": "address",
          "name": "implementation",
          "type": "address"
        }
      ],
      "name": "Upgraded",
      "type": "event"
    },
    {
      "anonymous": false,
      "inputs": [
        {
          "indexed": false,
          "internalType": "uint256",
          "name": "value",
          "type": "uint256"
        }
      ],
      "name": "ValueChanged",
      "type": "event"
    },
    {
      "inputs": [],
      "name": "MAX_SUPPLY",
      "outputs": [
        {
          "internalType": "uint256",
          "name": "",
          "type": "uint256"
        }
      ],
      "stateMutability": "view",
      "type": "function"
    },
    {
      "inputs": [
        {
          "internalType": "address",
          "name": "to",
          "type": "address"
        },
        {
          "internalType": "uint256",
          "name": "tokenId",
          "type": "uint256"
        }
      ],
      "name": "approve",
      "outputs": [],
      "stateMutability": "nonpayable",
      "type": "function"
    },
    {
      "inputs": [
        {
          "internalType": "address",
          "name": "owner",
          "type": "address"
        }
      ],
      "name": "balanceOf",
      "outputs": [
        {
          "internalType": "uint256",
          "name": "",
          "type": "uint256"
        }
      ],
      "stateMutability": "view",
      "type": "function"
    },
    {
      "inputs": [
        {
          "internalType": "uint256",
          "name": "tokenId",
          "type": "uint256"
        }
      ],
      "name": "burn",
      "outputs": [],
      "stateMutability": "nonpayable",
      "type": "function"
    },
    {
      "inputs": [],
      "name": "contractURI",
      "outputs": [
        {
          "internalType": "string",
          "name": "",
          "type": "string"
        }
      ],
      "stateMutability": "view",
      "type": "function"
    },
    {
      "inputs": [
        {
          "internalType": "string",
          "name": "tokenURIHash",
          "type": "string"
        }
      ],
      "name": "createToken",
      "outputs": [
        {
          "internalType": "uint256",
          "name": "",
          "type": "uint256"
        }
      ],
      "stateMutability": "payable",
      "type": "function"
    },
    {
      "inputs": [
        {
          "internalType": "uint256",
          "name": "tokenId",
          "type": "uint256"
        }
      ],
      "name": "getApproved",
      "outputs": [
        {
          "internalType": "address",
          "name": "",
          "type": "address"
        }
      ],
      "stateMutability": "view",
      "type": "function"
    },
    {
      "inputs": [],
      "name": "getListingPrice",
      "outputs": [
        {
          "internalType": "uint256",
          "name": "",
          "type": "uint256"
        }
      ],
      "stateMutability": "view",
      "type": "function"
    },
    {
      "inputs": [],
      "name": "incrementListingPrice",
      "outputs": [],
      "stateMutability": "nonpayable",
      "type": "function"
    },
    {
      "inputs": [
        {
          "internalType": "address",
          "name": "_sellerAddress",
          "type": "address"
        },
        {
          "internalType": "string",
          "name": "name",
          "type": "string"
        },
        {
          "internalType": "string",
          "name": "symbol",
          "type": "string"
        }
      ],
      "name": "initialize",
      "outputs": [],
      "stateMutability": "nonpayable",
      "type": "function"
    },
    {
      "inputs": [
        {
          "internalType": "address",
          "name": "owner",
          "type": "address"
        },
        {
          "internalType": "address",
          "name": "operator",
          "type": "address"
        }
      ],
      "name": "isApprovedForAll",
      "outputs": [
        {
          "internalType": "bool",
          "name": "",
          "type": "bool"
        }
      ],
      "stateMutability": "view",
      "type": "function"
    },
    {
      "inputs": [],
      "name": "name",
      "outputs": [
        {
          "internalType": "string",
          "name": "",
          "type": "string"
        }
      ],
      "stateMutability": "view",
      "type": "function"
    },
    {
      "inputs": [],
      "name": "owner",
      "outputs": [
        {
          "internalType": "address",
          "name": "",
          "type": "address"
        }
      ],
      "stateMutability": "view",
      "type": "function"
    },
    {
      "inputs": [
        {
          "internalType": "uint256",
          "name": "tokenId",
          "type": "uint256"
        }
      ],
      "name": "ownerOf",
      "outputs": [
        {
          "internalType": "address",
          "name": "",
          "type": "address"
        }
      ],
      "stateMutability": "view",
      "type": "function"
    },
    {
      "inputs": [],
      "name": "renounceOwnership",
      "outputs": [],
      "stateMutability": "nonpayable",
      "type": "function"
    },
    {
      "inputs": [
        {
          "internalType": "address",
          "name": "from",
          "type": "address"
        },
        {
          "internalType": "address",
          "name": "to",
          "type": "address"
        },
        {
          "internalType": "uint256",
          "name": "tokenId",
          "type": "uint256"
        }
      ],
      "name": "safeTransferFrom",
      "outputs": [],
      "stateMutability": "nonpayable",
      "type": "function"
    },
    {
      "inputs": [
        {
          "internalType": "address",
          "name": "from",
          "type": "address"
        },
        {
          "internalType": "address",
          "name": "to",
          "type": "address"
        },
        {
          "internalType": "uint256",
          "name": "tokenId",
          "type": "uint256"
        },
        {
          "internalType": "bytes",
          "name": "_data",
          "type": "bytes"
        }
      ],
      "name": "safeTransferFrom",
      "outputs": [],
      "stateMutability": "nonpayable",
      "type": "function"
    },
    {
      "inputs": [
        {
          "internalType": "address",
          "name": "operator",
          "type": "address"
        },
        {
          "internalType": "bool",
          "name": "approved",
          "type": "bool"
        }
      ],
      "name": "setApprovalForAll",
      "outputs": [],
      "stateMutability": "nonpayable",
      "type": "function"
    },
    {
      "inputs": [
        {
          "internalType": "string",
          "name": "newContractURIHash",
          "type": "string"
        }
      ],
      "name": "setContractURIHash",
      "outputs": [],
      "stateMutability": "nonpayable",
      "type": "function"
    },
    {
      "inputs": [
        {
          "internalType": "uint256",
          "name": "_listingPrice",
          "type": "uint256"
        }
      ],
      "name": "setListingPrice",
      "outputs": [],
      "stateMutability": "nonpayable",
      "type": "function"
    },
    {
      "inputs": [
        {
          "internalType": "bytes4",
          "name": "interfaceId",
          "type": "bytes4"
        }
      ],
      "name": "supportsInterface",
      "outputs": [
        {
          "internalType": "bool",
          "name": "",
          "type": "bool"
        }
      ],
      "stateMutability": "view",
      "type": "function"
    },
    {
      "inputs": [],
      "name": "symbol",
      "outputs": [
        {
          "internalType": "string",
          "name": "",
          "type": "string"
        }
      ],
      "stateMutability": "view",
      "type": "function"
    },
    {
      "inputs": [
        {
          "internalType": "uint256",
          "name": "index",
          "type": "uint256"
        }
      ],
      "name": "tokenByIndex",
      "outputs": [
        {
          "internalType": "uint256",
          "name": "",
          "type": "uint256"
        }
      ],
      "stateMutability": "view",
      "type": "function"
    },
    {
      "inputs": [
        {
          "internalType": "address",
          "name": "owner",
          "type": "address"
        },
        {
          "internalType": "uint256",
          "name": "index",
          "type": "uint256"
        }
      ],
      "name": "tokenOfOwnerByIndex",
      "outputs": [
        {
          "internalType": "uint256",
          "name": "",
          "type": "uint256"
        }
      ],
      "stateMutability": "view",
      "type": "function"
    },
    {
      "inputs": [
        {
          "internalType": "uint256",
          "name": "tokenId",
          "type": "uint256"
        }
      ],
      "name": "tokenURI",
      "outputs": [
        {
          "internalType": "string",
          "name": "",
          "type": "string"
        }
      ],
      "stateMutability": "view",
      "type": "function"
    },
    {
      "inputs": [
        {
          "internalType": "address",
          "name": "_owner",
          "type": "address"
        }
      ],
      "name": "tokensOfOwner",
      "outputs": [
        {
          "internalType": "uint256[]",
          "name": "ownerTokens",
          "type": "uint256[]"
        }
      ],
      "stateMutability": "view",
      "type": "function"
    },
    {
      "inputs": [],
      "name": "totalSupply",
      "outputs": [
        {
          "internalType": "uint256",
          "name": "",
          "type": "uint256"
        }
      ],
      "stateMutability": "view",
      "type": "function"
    },
    {
      "inputs": [
        {
          "internalType": "address",
          "name": "from",
          "type": "address"
        },
        {
          "internalType": "address",
          "name": "to",
          "type": "address"
        },
        {
          "internalType": "uint256",
          "name": "tokenId",
          "type": "uint256"
        }
      ],
      "name": "transferFrom",
      "outputs": [],
      "stateMutability": "nonpayable",
      "type": "function"
    },
    {
      "inputs": [
        {
          "internalType": "address",
          "name": "newOwner",
          "type": "address"
        }
      ],
      "name": "transferOwnership",
      "outputs": [],
      "stateMutability": "nonpayable",
      "type": "function"
    },
    {
      "inputs": [
        {
          "internalType": "address",
          "name": "newImplementation",
          "type": "address"
        }
      ],
      "name": "upgradeTo",
      "outputs": [],
      "stateMutability": "nonpayable",
      "type": "function"
    },
    {
      "inputs": [
        {
          "internalType": "address",
          "name": "newImplementation",
          "type": "address"
        },
        {
          "internalType": "bytes",
          "name": "data",
          "type": "bytes"
        }
      ],
      "name": "upgradeToAndCall",
      "outputs": [],
      "stateMutability": "payable",
      "type": "function"
    }
  ],
  "bytecode": "0x60a06040523060601b6080523480156200001857600080fd5b50600054610100900460ff16620000365760005460ff161562000040565b62000040620000e5565b620000a85760405162461bcd60e51b815260206004820152602e60248201527f496e697469616c697a61626c653a20636f6e747261637420697320616c72656160448201526d191e481a5b9a5d1a585b1a5e995960921b606482015260840160405180910390fd5b600054610100900460ff16158015620000cb576000805461ffff19166101011790555b8015620000de576000805461ff00191690555b5062000109565b6000620000fd306200010360201b620012db1760201c565b15905090565b3b151590565b60805160601c6130346200013d600039600081816108e20152818161092201528181610c470152610c8701526130346000f3fe6080604052600436106101d85760003560e01c80636352211e11610102578063a22cb46511610095578063c87b56dd11610064578063c87b56dd1461052b578063e8a3d4851461054b578063e985e9c514610560578063f2fde38b146105a957600080fd5b8063a22cb465146104b6578063b88d4fde146104d6578063baedc1c4146104f6578063bc9113391461051657600080fd5b80638462151c116100d15780638462151c146104355780638da5cb5b14610462578063906571471461048157806395d89b41146104a157600080fd5b80636352211e146103c057806370a08231146103e0578063715018a6146104005780637c726b691461041557600080fd5b80632f745c591161017a57806342966c681161014957806342966c681461035a57806345576f941461037a5780634f1ef2861461038d5780634f6ccce7146103a057600080fd5b80632f745c59146102e457806332cb6b0c146103045780633659cfe61461031a57806342842e0e1461033a57600080fd5b8063095ea7b3116101b6578063095ea7b31461026c57806312e855851461028e57806318160ddd146102ae57806323b872dd146102c457600080fd5b806301ffc9a7146101dd57806306fdde0314610212578063081812fc14610234575b600080fd5b3480156101e957600080fd5b506101fd6101f8366004612a7b565b6105c9565b60405190151581526020015b60405180910390f35b34801561021e57600080fd5b506102276105da565b6040516102099190612cd8565b34801561024057600080fd5b5061025461024f366004612ae6565b61066c565b6040516001600160a01b039091168152602001610209565b34801561027857600080fd5b5061028c610287366004612a52565b6106f9565b005b34801561029a57600080fd5b506101c5545b604051908152602001610209565b3480156102ba57600080fd5b50610193546102a0565b3480156102d057600080fd5b5061028c6102df3660046128ba565b61080f565b3480156102f057600080fd5b506102a06102ff366004612a52565b610840565b34801561031057600080fd5b506102a06122b881565b34801561032657600080fd5b5061028c61033536600461286e565b6108d7565b34801561034657600080fd5b5061028c6103553660046128ba565b6109a0565b34801561036657600080fd5b5061028c610375366004612ae6565b6109bb565b6102a0610388366004612ab3565b610a1a565b61028c61039b366004612995565b610c3c565b3480156103ac57600080fd5b506102a06103bb366004612ae6565b610cf6565b3480156103cc57600080fd5b506102546103db366004612ae6565b610d99565b3480156103ec57600080fd5b506102a06103fb36600461286e565b610e10565b34801561040c57600080fd5b5061028c610e97565b34801561042157600080fd5b5061028c610430366004612ae6565b610ece565b34801561044157600080fd5b5061045561045036600461286e565b610eff565b6040516102099190612c94565b34801561046e57600080fd5b5061015f546001600160a01b0316610254565b34801561048d57600080fd5b5061028c61049c3660046129e1565b610fd9565b3480156104ad57600080fd5b50610227611108565b3480156104c257600080fd5b5061028c6104d136600461295b565b611117565b3480156104e257600080fd5b5061028c6104f13660046128f5565b611122565b34801561050257600080fd5b5061028c610511366004612ab3565b611154565b34801561052257600080fd5b5061028c611193565b34801561053757600080fd5b50610227610546366004612ae6565b61120e565b34801561055757600080fd5b50610227611219565b34801561056c57600080fd5b506101fd61057b366004612888565b6001600160a01b039182166000908152609c6020908152604080832093909416825291909152205460ff1690565b3480156105b557600080fd5b5061028c6105c436600461286e565b611242565b60006105d4826112e1565b92915050565b6060609780546105e990612f15565b80601f016020809104026020016040519081016040528092919081815260200182805461061590612f15565b80156106625780601f1061063757610100808354040283529160200191610662565b820191906000526020600020905b81548152906001019060200180831161064557829003601f168201915b5050505050905090565b600061067782611306565b6106dd5760405162461bcd60e51b815260206004820152602c60248201527f4552433732313a20617070726f76656420717565727920666f72206e6f6e657860448201526b34b9ba32b73a103a37b5b2b760a11b60648201526084015b60405180910390fd5b506000908152609b60205260409020546001600160a01b031690565b600061070482610d99565b9050806001600160a01b0316836001600160a01b031614156107725760405162461bcd60e51b815260206004820152602160248201527f4552433732313a20617070726f76616c20746f2063757272656e74206f776e656044820152603960f91b60648201526084016106d4565b336001600160a01b038216148061078e575061078e813361057b565b6108005760405162461bcd60e51b815260206004820152603860248201527f4552433732313a20617070726f76652063616c6c6572206973206e6f74206f7760448201527f6e6572206e6f7220617070726f76656420666f7220616c6c000000000000000060648201526084016106d4565b61080a8383611323565b505050565b6108193382611391565b6108355760405162461bcd60e51b81526004016106d490612e0a565b61080a83838361147b565b600061084b83610e10565b82106108ad5760405162461bcd60e51b815260206004820152602b60248201527f455243373231456e756d657261626c653a206f776e657220696e646578206f7560448201526a74206f6620626f756e647360a81b60648201526084016106d4565b506001600160a01b0391909116600090815261019160209081526040808320938352929052205490565b306001600160a01b037f00000000000000000000000000000000000000000000000000000000000000001614156109205760405162461bcd60e51b81526004016106d490612d3d565b7f00000000000000000000000000000000000000000000000000000000000000006001600160a01b0316610952611626565b6001600160a01b0316146109785760405162461bcd60e51b81526004016106d490612d89565b61098181611654565b6040805160008082526020820190925261099d9183919061167f565b50565b61080a83838360405180602001604052806000815250611122565b336109c582610d99565b6001600160a01b031614610a115760405162461bcd60e51b815260206004820152601360248201527221b0b63632b91034b9903737ba1027bbb732b960691b60448201526064016106d4565b61099d816117ca565b600060026001541415610a6f5760405162461bcd60e51b815260206004820152601f60248201527f5265656e7472616e637947756172643a207265656e7472616e742063616c6c0060448201526064016106d4565b60026001556101c554341015610af75760405162461bcd60e51b815260206004820152604160248201527f506c65617365207375626d697420746865206c697374696e672070726963652060448201527f696e206f7264657220746f20636f6d706c6574652074686520707572636861736064820152606560f81b608482015260a4016106d4565b610b066101c380546001019055565b6000610b126101c35490565b90506122b8811115610b5a5760405162461bcd60e51b8152602060048201526011602482015270105b1b081d1bdad95b9cc81b5a5b9d1959607a1b60448201526064016106d4565b600083604051602001610b6d9190612b75565b60408051808303601f19018152908290526101c65490925034916000916001600160a01b03169083908381818185875af1925050503d8060008114610bce576040519150601f19603f3d011682016040523d82523d6000602084013e610bd3565b606091505b5050905080610c1b5760405162461bcd60e51b81526020600482015260146024820152732330b4b632b2103a379039b2b7321022ba3432b960611b60448201526064016106d4565b610c2533856117d3565b610c2f84846117ed565b5050600180555092915050565b306001600160a01b037f0000000000000000000000000000000000000000000000000000000000000000161415610c855760405162461bcd60e51b81526004016106d490612d3d565b7f00000000000000000000000000000000000000000000000000000000000000006001600160a01b0316610cb7611626565b6001600160a01b031614610cdd5760405162461bcd60e51b81526004016106d490612d89565b610ce682611654565b610cf28282600161167f565b5050565b6000610d026101935490565b8210610d655760405162461bcd60e51b815260206004820152602c60248201527f455243373231456e756d657261626c653a20676c6f62616c20696e646578206f60448201526b7574206f6620626f756e647360a01b60648201526084016106d4565b6101938281548110610d8757634e487b7160e01b600052603260045260246000fd5b90600052602060002001549050919050565b6000818152609960205260408120546001600160a01b0316806105d45760405162461bcd60e51b815260206004820152602960248201527f4552433732313a206f776e657220717565727920666f72206e6f6e657869737460448201526832b73a103a37b5b2b760b91b60648201526084016106d4565b60006001600160a01b038216610e7b5760405162461bcd60e51b815260206004820152602a60248201527f4552433732313a2062616c616e636520717565727920666f7220746865207a65604482015269726f206164647265737360b01b60648201526084016106d4565b506001600160a01b03166000908152609a602052604090205490565b61015f546001600160a01b03163314610ec25760405162461bcd60e51b81526004016106d490612dd5565b610ecc6000611878565b565b61015f546001600160a01b03163314610ef95760405162461bcd60e51b81526004016106d490612dd5565b6101c555565b60606000610f0c83610e10565b905060008167ffffffffffffffff811115610f3757634e487b7160e01b600052604160045260246000fd5b604051908082528060200260200182016040528015610f60578160200160208202803683370190505b50905081610f7f57505060408051600081526020810190915292915050565b60005b82811015610fd157610f948582610840565b828281518110610fb457634e487b7160e01b600052603260045260246000fd5b602090810291909101015280610fc981612f50565b915050610f82565b509392505050565b600054610100900460ff16610ff45760005460ff1615610ff8565b303b155b61105b5760405162461bcd60e51b815260206004820152602e60248201527f496e697469616c697a61626c653a20636f6e747261637420697320616c72656160448201526d191e481a5b9a5d1a585b1a5e995960921b60648201526084016106d4565b600054610100900460ff1615801561107d576000805461ffff19166101011790555b61108783836118cb565b61108f61190c565b61109761190c565b61109f61194b565b6110a7611982565b6101c680546001600160a01b0319166001600160a01b0386161790556040805160208101918290526000908190526110e2916101c4916126fc565b506703782dace9d900006101c5558015611102576000805461ff00191690555b50505050565b6060609880546105e990612f15565b610cf23383836119a9565b61112c3383611391565b6111485760405162461bcd60e51b81526004016106d490612e0a565b61110284848484611a78565b61015f546001600160a01b0316331461117f5760405162461bcd60e51b81526004016106d490612dd5565b8051610cf2906101c49060208401906126fc565b61015f546001600160a01b031633146111be5760405162461bcd60e51b81526004016106d490612dd5565b6101c5546111d390662386f26fc10000612ea6565b6101c58190556040519081527f93fe6d397c74fdf1402a8b72e47b68512f0510d7b98a4bc4cbdf6ac7108b3c599060200160405180910390a1565b60606105d482611aab565b60606101c460405160200161122e9190612ba4565b604051602081830303815290604052905090565b61015f546001600160a01b0316331461126d5760405162461bcd60e51b81526004016106d490612dd5565b6001600160a01b0381166112d25760405162461bcd60e51b815260206004820152602660248201527f4f776e61626c653a206e6577206f776e657220697320746865207a65726f206160448201526564647265737360d01b60648201526084016106d4565b61099d81611878565b3b151590565b60006001600160e01b0319821663780e9d6360e01b14806105d457506105d482611c1a565b6000908152609960205260409020546001600160a01b0316151590565b6000818152609b6020526040902080546001600160a01b0319166001600160a01b038416908117909155819061135882610d99565b6001600160a01b03167f8c5be1e5ebec7d5bd14f71427d1e84f3dd0314c0f7b2291e5b200ac8c7c3b92560405160405180910390a45050565b600061139c82611306565b6113fd5760405162461bcd60e51b815260206004820152602c60248201527f4552433732313a206f70657261746f7220717565727920666f72206e6f6e657860448201526b34b9ba32b73a103a37b5b2b760a11b60648201526084016106d4565b600061140883610d99565b9050806001600160a01b0316846001600160a01b031614806114435750836001600160a01b03166114388461066c565b6001600160a01b0316145b8061147357506001600160a01b038082166000908152609c602090815260408083209388168352929052205460ff165b949350505050565b826001600160a01b031661148e82610d99565b6001600160a01b0316146114f65760405162461bcd60e51b815260206004820152602960248201527f4552433732313a207472616e73666572206f6620746f6b656e2074686174206960448201526839903737ba1037bbb760b91b60648201526084016106d4565b6001600160a01b0382166115585760405162461bcd60e51b8152602060048201526024808201527f4552433732313a207472616e7366657220746f20746865207a65726f206164646044820152637265737360e01b60648201526084016106d4565b611563838383611c6a565b61156e600082611323565b6001600160a01b0383166000908152609a60205260408120805460019290611597908490612ed2565b90915550506001600160a01b0382166000908152609a602052604081208054600192906115c5908490612ea6565b909155505060008181526099602052604080822080546001600160a01b0319166001600160a01b0386811691821790925591518493918716917fddf252ad1be2c89b69c2b068fc378daa952ba7f163c4a11628f55a4df523b3ef91a4505050565b7f360894a13ba1a3210667c828492db98dca3e2076cc3735a920a3ca505d382bbc546001600160a01b031690565b61015f546001600160a01b0316331461099d5760405162461bcd60e51b81526004016106d490612dd5565b6000611689611626565b905061169484611c75565b6000835111806116a15750815b156116b2576116b08484611d1a565b505b7f4910fdfa16fed3260ed0e7147f7cc6da11a60208b5b9406d12a635614ffd9143805460ff166117c357805460ff191660011781556040516001600160a01b038316602482015261173190869060440160408051601f198184030181529190526020810180516001600160e01b0316631b2ce7f360e11b179052611d1a565b50805460ff19168155611742611626565b6001600160a01b0316826001600160a01b0316146117ba5760405162461bcd60e51b815260206004820152602f60248201527f45524331393637557067726164653a207570677261646520627265616b73206660448201526e75727468657220757067726164657360881b60648201526084016106d4565b6117c385611e05565b5050505050565b61099d81611e45565b610cf2828260405180602001604052806000815250611e85565b6117f682611306565b6118595760405162461bcd60e51b815260206004820152602e60248201527f45524337323155524953746f726167653a2055524920736574206f66206e6f6e60448201526d32bc34b9ba32b73a103a37b5b2b760911b60648201526084016106d4565b600082815260c960209081526040909120825161080a928401906126fc565b61015f80546001600160a01b038381166001600160a01b0319831681179093556040519116919082907f8be0079c531659141344cd1fd0a4f28419497f9722a3daafe3b4186f6b6457e090600090a35050565b600054610100900460ff166118f25760405162461bcd60e51b81526004016106d490612e5b565b6118fa611eb8565b611902611eb8565b610cf28282611edf565b600054610100900460ff166119335760405162461bcd60e51b81526004016106d490612e5b565b61193b611eb8565b611943611eb8565b610ecc611eb8565b600054610100900460ff166119725760405162461bcd60e51b81526004016106d490612e5b565b61197a611eb8565b610ecc611f2d565b600054610100900460ff1661193b5760405162461bcd60e51b81526004016106d490612e5b565b816001600160a01b0316836001600160a01b03161415611a0b5760405162461bcd60e51b815260206004820152601960248201527f4552433732313a20617070726f766520746f2063616c6c65720000000000000060448201526064016106d4565b6001600160a01b038381166000818152609c6020908152604080832094871680845294825291829020805460ff191686151590811790915591519182527f17307eab39ab6107e8899845ad3d59bd9653f200f220920489ca2b5937696c31910160405180910390a3505050565b611a8384848461147b565b611a8f84848484611f5d565b6111025760405162461bcd60e51b81526004016106d490612ceb565b6060611ab682611306565b611b1c5760405162461bcd60e51b815260206004820152603160248201527f45524337323155524953746f726167653a2055524920717565727920666f72206044820152703737b732bc34b9ba32b73a103a37b5b2b760791b60648201526084016106d4565b600082815260c9602052604081208054611b3590612f15565b80601f0160208091040260200160405190810160405280929190818152602001828054611b6190612f15565b8015611bae5780601f10611b8357610100808354040283529160200191611bae565b820191906000526020600020905b815481529060010190602001808311611b9157829003601f168201915b505050505090506000611bcc60408051602081019091526000815290565b9050805160001415611bdf575092915050565b815115611c11578082604051602001611bf9929190612b46565b60405160208183030381529060405292505050919050565b6114738461206a565b60006001600160e01b031982166380ac58cd60e01b1480611c4b57506001600160e01b03198216635b5e139f60e01b145b806105d457506301ffc9a760e01b6001600160e01b03198316146105d4565b61080a838383612142565b803b611cd95760405162461bcd60e51b815260206004820152602d60248201527f455243313936373a206e657720696d706c656d656e746174696f6e206973206e60448201526c1bdd08184818dbdb9d1c9858dd609a1b60648201526084016106d4565b7f360894a13ba1a3210667c828492db98dca3e2076cc3735a920a3ca505d382bbc80546001600160a01b0319166001600160a01b0392909216919091179055565b6060823b611d795760405162461bcd60e51b815260206004820152602660248201527f416464726573733a2064656c65676174652063616c6c20746f206e6f6e2d636f6044820152651b9d1c9858dd60d21b60648201526084016106d4565b600080846001600160a01b031684604051611d949190612b2a565b600060405180830381855af49150503d8060008114611dcf576040519150601f19603f3d011682016040523d82523d6000602084013e611dd4565b606091505b5091509150611dfc8282604051806060016040528060278152602001612fd8602791396121fc565b95945050505050565b611e0e81611c75565b6040516001600160a01b038216907fbc7cd75a20ee27fd9adebab32041f755214dbc6bffa90cc0225b39da2e5c2d3b90600090a250565b611e4e81612235565b600081815260c9602052604090208054611e6790612f15565b15905061099d57600081815260c96020526040812061099d91612780565b611e8f83836122dc565b611e9c6000848484611f5d565b61080a5760405162461bcd60e51b81526004016106d490612ceb565b600054610100900460ff16610ecc5760405162461bcd60e51b81526004016106d490612e5b565b600054610100900460ff16611f065760405162461bcd60e51b81526004016106d490612e5b565b8151611f199060979060208501906126fc565b50805161080a9060989060208401906126fc565b600054610100900460ff16611f545760405162461bcd60e51b81526004016106d490612e5b565b610ecc33611878565b60006001600160a01b0384163b1561205f57604051630a85bd0160e11b81526001600160a01b0385169063150b7a0290611fa1903390899088908890600401612c57565b602060405180830381600087803b158015611fbb57600080fd5b505af1925050508015611feb575060408051601f3d908101601f19168201909252611fe891810190612a97565b60015b612045573d808015612019576040519150601f19603f3d011682016040523d82523d6000602084013e61201e565b606091505b50805161203d5760405162461bcd60e51b81526004016106d490612ceb565b805181602001fd5b6001600160e01b031916630a85bd0160e11b149050611473565b506001949350505050565b606061207582611306565b6120d95760405162461bcd60e51b815260206004820152602f60248201527f4552433732314d657461646174613a2055524920717565727920666f72206e6f60448201526e3732bc34b9ba32b73a103a37b5b2b760891b60648201526084016106d4565b60006120f060408051602081019091526000815290565b90506000815111612110576040518060200160405280600081525061213b565b8061211a8461241b565b60405160200161212b929190612b46565b6040516020818303038152906040525b9392505050565b6001600160a01b03831661219f5761219a816101938054600083815261019460205260408120829055600182018355919091527ffc8af01f449989052b52093a58fc9f42d0b11f0c6dd5dca0463dab62346ccc680155565b6121c2565b816001600160a01b0316836001600160a01b0316146121c2576121c28382612535565b6001600160a01b0382166121d95761080a816125d7565b826001600160a01b0316826001600160a01b03161461080a5761080a82826126b6565b6060831561220b57508161213b565b82511561221b5782518084602001fd5b8160405162461bcd60e51b81526004016106d49190612cd8565b600061224082610d99565b905061224e81600084611c6a565b612259600083611323565b6001600160a01b0381166000908152609a60205260408120805460019290612282908490612ed2565b909155505060008281526099602052604080822080546001600160a01b0319169055518391906001600160a01b038416907fddf252ad1be2c89b69c2b068fc378daa952ba7f163c4a11628f55a4df523b3ef908390a45050565b6001600160a01b0382166123325760405162461bcd60e51b815260206004820181905260248201527f4552433732313a206d696e7420746f20746865207a65726f206164647265737360448201526064016106d4565b61233b81611306565b156123885760405162461bcd60e51b815260206004820152601c60248201527f4552433732313a20746f6b656e20616c7265616479206d696e7465640000000060448201526064016106d4565b61239460008383611c6a565b6001600160a01b0382166000908152609a602052604081208054600192906123bd908490612ea6565b909155505060008181526099602052604080822080546001600160a01b0319166001600160a01b03861690811790915590518392907fddf252ad1be2c89b69c2b068fc378daa952ba7f163c4a11628f55a4df523b3ef908290a45050565b60608161243f5750506040805180820190915260018152600360fc1b602082015290565b8160005b8115612469578061245381612f50565b91506124629050600a83612ebe565b9150612443565b60008167ffffffffffffffff81111561249257634e487b7160e01b600052604160045260246000fd5b6040519080825280601f01601f1916602001820160405280156124bc576020820181803683370190505b5090505b8415611473576124d1600183612ed2565b91506124de600a86612f6b565b6124e9906030612ea6565b60f81b81838151811061250c57634e487b7160e01b600052603260045260246000fd5b60200101906001600160f81b031916908160001a90535061252e600a86612ebe565b94506124c0565b6000600161254284610e10565b61254c9190612ed2565b600083815261019260205260409020549091508082146125a2576001600160a01b038416600090815261019160209081526040808320858452825280832054848452818420819055835261019290915290208190555b506000918252610192602090815260408084208490556001600160a01b03909416835261019181528383209183525290812055565b610193546000906125ea90600190612ed2565b60008381526101946020526040812054610193805493945090928490811061262257634e487b7160e01b600052603260045260246000fd5b9060005260206000200154905080610193838154811061265257634e487b7160e01b600052603260045260246000fd5b6000918252602080832090910192909255828152610194909152604080822084905585825281205561019380548061269a57634e487b7160e01b600052603160045260246000fd5b6001900381819060005260206000200160009055905550505050565b60006126c183610e10565b6001600160a01b0390931660009081526101916020908152604080832086845282528083208590559382526101929052919091209190915550565b82805461270890612f15565b90600052602060002090601f01602090048101928261272a5760008555612770565b82601f1061274357805160ff1916838001178555612770565b82800160010185558215612770579182015b82811115612770578251825591602001919060010190612755565b5061277c9291506127b6565b5090565b50805461278c90612f15565b6000825580601f1061279c575050565b601f01602090049060005260206000209081019061099d91905b5b8082111561277c57600081556001016127b7565b80356001600160a01b03811681146127e257600080fd5b919050565b600082601f8301126127f7578081fd5b813567ffffffffffffffff8082111561281257612812612fab565b604051601f8301601f19908116603f0116810190828211818310171561283a5761283a612fab565b81604052838152866020858801011115612852578485fd5b8360208701602083013792830160200193909352509392505050565b60006020828403121561287f578081fd5b61213b826127cb565b6000806040838503121561289a578081fd5b6128a3836127cb565b91506128b1602084016127cb565b90509250929050565b6000806000606084860312156128ce578081fd5b6128d7846127cb565b92506128e5602085016127cb565b9150604084013590509250925092565b6000806000806080858703121561290a578081fd5b612913856127cb565b9350612921602086016127cb565b925060408501359150606085013567ffffffffffffffff811115612943578182fd5b61294f878288016127e7565b91505092959194509250565b6000806040838503121561296d578182fd5b612976836127cb565b91506020830135801515811461298a578182fd5b809150509250929050565b600080604083850312156129a7578182fd5b6129b0836127cb565b9150602083013567ffffffffffffffff8111156129cb578182fd5b6129d7858286016127e7565b9150509250929050565b6000806000606084860312156129f5578283fd5b6129fe846127cb565b9250602084013567ffffffffffffffff80821115612a1a578384fd5b612a26878388016127e7565b93506040860135915080821115612a3b578283fd5b50612a48868287016127e7565b9150509250925092565b60008060408385031215612a64578182fd5b612a6d836127cb565b946020939093013593505050565b600060208284031215612a8c578081fd5b813561213b81612fc1565b600060208284031215612aa8578081fd5b815161213b81612fc1565b600060208284031215612ac4578081fd5b813567ffffffffffffffff811115612ada578182fd5b611473848285016127e7565b600060208284031215612af7578081fd5b5035919050565b60008151808452612b16816020860160208601612ee9565b601f01601f19169290920160200192915050565b60008251612b3c818460208701612ee9565b9190910192915050565b60008351612b58818460208801612ee9565b835190830190612b6c818360208801612ee9565b01949350505050565b66697066733a2f2f60c81b815260008251612b97816007850160208701612ee9565b9190910160070192915050565b66697066733a2f2f60c81b81526000600781845483600182811c915080831680612bcf57607f831692505b6020808410821415612bef57634e487b7160e01b88526022600452602488fd5b818015612c035760018114612c1857612c48565b60ff1986168a890152848a0188019650612c48565b60008b815260209020895b86811015612c3e5781548c82018b0152908501908301612c23565b505087858b010196505b50949998505050505050505050565b6001600160a01b0385811682528416602082015260408101839052608060608201819052600090612c8a90830184612afe565b9695505050505050565b6020808252825182820181905260009190848201906040850190845b81811015612ccc57835183529284019291840191600101612cb0565b50909695505050505050565b60208152600061213b6020830184612afe565b60208082526032908201527f4552433732313a207472616e7366657220746f206e6f6e20455243373231526560408201527131b2b4bb32b91034b6b83632b6b2b73a32b960711b606082015260800190565b6020808252602c908201527f46756e6374696f6e206d7573742062652063616c6c6564207468726f7567682060408201526b19195b1959d85d1958d85b1b60a21b606082015260800190565b6020808252602c908201527f46756e6374696f6e206d7573742062652063616c6c6564207468726f7567682060408201526b6163746976652070726f787960a01b606082015260800190565b6020808252818101527f4f776e61626c653a2063616c6c6572206973206e6f7420746865206f776e6572604082015260600190565b60208082526031908201527f4552433732313a207472616e736665722063616c6c6572206973206e6f74206f6040820152701ddb995c881b9bdc88185c1c1c9bdd9959607a1b606082015260800190565b6020808252602b908201527f496e697469616c697a61626c653a20636f6e7472616374206973206e6f74206960408201526a6e697469616c697a696e6760a81b606082015260800190565b60008219821115612eb957612eb9612f7f565b500190565b600082612ecd57612ecd612f95565b500490565b600082821015612ee457612ee4612f7f565b500390565b60005b83811015612f04578181015183820152602001612eec565b838111156111025750506000910152565b600181811c90821680612f2957607f821691505b60208210811415612f4a57634e487b7160e01b600052602260045260246000fd5b50919050565b6000600019821415612f6457612f64612f7f565b5060010190565b600082612f7a57612f7a612f95565b500690565b634e487b7160e01b600052601160045260246000fd5b634e487b7160e01b600052601260045260246000fd5b634e487b7160e01b600052604160045260246000fd5b6001600160e01b03198116811461099d57600080fdfe416464726573733a206c6f772d6c6576656c2064656c65676174652063616c6c206661696c6564a2646970667358221220c7cda9ad37053089ac8068ce59347502614754e607aa809c69d7072430b95df664736f6c63430008040033",
  "linkReferences": {},
  "deployedLinkReferences": {}
}