{
  "_format": "hh-sol-artifact-1",
  "contractName": "NFTMarket",
  "sourceName": "contracts/Market.sol",
  "abi": [
    {
      "inputs": [],
      "stateMutability": "nonpayable",
      "type": "constructor"
    },
    {
      "anonymous": false,
      "inputs": [
        {
          "indexed": false,
          "internalType": "address",
          "name": "previousAdmin",
          "type": "address"
        },
        {
          "indexed": false,
          "internalType": "address",
          "name": "newAdmin",
          "type": "address"
        }
      ],
      "name": "AdminChanged",
      "type": "event"
    },
    {
      "anonymous": false,
      "inputs": [
        {
          "indexed": true,
          "internalType": "address",
          "name": "beacon",
          "type": "address"
        }
      ],
      "name": "BeaconUpgraded",
      "type": "event"
    },
    {
      "anonymous": false,
      "inputs": [
        {
          "indexed": true,
          "internalType": "uint256",
          "name": "itemId",
          "type": "uint256"
        },
        {
          "indexed": true,
          "internalType": "address",
          "name": "nftContract",
          "type": "address"
        },
        {
          "indexed": true,
          "internalType": "uint256",
          "name": "tokenId",
          "type": "uint256"
        },
        {
          "indexed": false,
          "internalType": "address",
          "name": "seller",
          "type": "address"
        },
        {
          "indexed": false,
          "internalType": "address",
          "name": "owner",
          "type": "address"
        },
        {
          "indexed": false,
          "internalType": "uint256",
          "name": "price",
          "type": "uint256"
        },
        {
          "indexed": false,
          "internalType": "bool",
          "name": "sold",
          "type": "bool"
        }
      ],
      "name": "MarketItemCreated",
      "type": "event"
    },
    {
      "anonymous": false,
      "inputs": [
        {
          "indexed": true,
          "internalType": "uint256",
          "name": "itemId",
          "type": "uint256"
        },
        {
          "indexed": true,
          "internalType": "address",
          "name": "nftContract",
          "type": "address"
        },
        {
          "indexed": true,
          "internalType": "uint256",
          "name": "tokenId",
          "type": "uint256"
        },
        {
          "indexed": false,
          "internalType": "address",
          "name": "seller",
          "type": "address"
        },
        {
          "indexed": false,
          "internalType": "address",
          "name": "owner",
          "type": "address"
        },
        {
          "indexed": false,
          "internalType": "uint256",
          "name": "price",
          "type": "uint256"
        },
        {
          "indexed": false,
          "internalType": "bool",
          "name": "sold",
          "type": "bool"
        }
      ],
      "name": "MarketItemSold",
      "type": "event"
    },
    {
      "anonymous": false,
      "inputs": [
        {
          "indexed": true,
          "internalType": "address",
          "name": "previousOwner",
          "type": "address"
        },
        {
          "indexed": true,
          "internalType": "address",
          "name": "newOwner",
          "type": "address"
        }
      ],
      "name": "OwnershipTransferred",
      "type": "event"
    },
    {
      "anonymous": false,
      "inputs": [
        {
          "indexed": true,
          "internalType": "address",
          "name": "implementation",
          "type": "address"
        }
      ],
      "name": "Upgraded",
      "type": "event"
    },
    {
      "anonymous": false,
      "inputs": [
        {
          "indexed": false,
          "internalType": "uint256",
          "name": "value",
          "type": "uint256"
        }
      ],
      "name": "ValueChanged",
      "type": "event"
    },
    {
      "inputs": [
        {
          "internalType": "address",
          "name": "nftContract",
          "type": "address"
        },
        {
          "internalType": "uint256",
          "name": "tokenId",
          "type": "uint256"
        },
        {
          "internalType": "uint256",
          "name": "price",
          "type": "uint256"
        }
      ],
      "name": "createMarketItem",
      "outputs": [],
      "stateMutability": "payable",
      "type": "function"
    },
    {
      "inputs": [
        {
          "internalType": "address",
          "name": "nftContract",
          "type": "address"
        },
        {
          "internalType": "uint256",
          "name": "itemId",
          "type": "uint256"
        }
      ],
      "name": "createMarketSale",
      "outputs": [],
      "stateMutability": "payable",
      "type": "function"
    },
    {
      "inputs": [],
      "name": "fetchItemsCreated",
      "outputs": [
        {
          "components": [
            {
              "internalType": "uint256",
              "name": "itemId",
              "type": "uint256"
            },
            {
              "internalType": "address",
              "name": "nftContract",
              "type": "address"
            },
            {
              "internalType": "uint256",
              "name": "tokenId",
              "type": "uint256"
            },
            {
              "internalType": "address payable",
              "name": "seller",
              "type": "address"
            },
            {
              "internalType": "address payable",
              "name": "owner",
              "type": "address"
            },
            {
              "internalType": "uint256",
              "name": "price",
              "type": "uint256"
            },
            {
              "internalType": "bool",
              "name": "sold",
              "type": "bool"
            }
          ],
          "internalType": "struct NFTMarket.MarketItem[]",
          "name": "",
          "type": "tuple[]"
        }
      ],
      "stateMutability": "view",
      "type": "function"
    },
    {
      "inputs": [],
      "name": "fetchMarketItems",
      "outputs": [
        {
          "components": [
            {
              "internalType": "uint256",
              "name": "itemId",
              "type": "uint256"
            },
            {
              "internalType": "address",
              "name": "nftContract",
              "type": "address"
            },
            {
              "internalType": "uint256",
              "name": "tokenId",
              "type": "uint256"
            },
            {
              "internalType": "address payable",
              "name": "seller",
              "type": "address"
            },
            {
              "internalType": "address payable",
              "name": "owner",
              "type": "address"
            },
            {
              "internalType": "uint256",
              "name": "price",
              "type": "uint256"
            },
            {
              "internalType": "bool",
              "name": "sold",
              "type": "bool"
            }
          ],
          "internalType": "struct NFTMarket.MarketItem[]",
          "name": "",
          "type": "tuple[]"
        }
      ],
      "stateMutability": "view",
      "type": "function"
    },
    {
      "inputs": [],
      "name": "fetchMyNFTs",
      "outputs": [
        {
          "components": [
            {
              "internalType": "uint256",
              "name": "itemId",
              "type": "uint256"
            },
            {
              "internalType": "address",
              "name": "nftContract",
              "type": "address"
            },
            {
              "internalType": "uint256",
              "name": "tokenId",
              "type": "uint256"
            },
            {
              "internalType": "address payable",
              "name": "seller",
              "type": "address"
            },
            {
              "internalType": "address payable",
              "name": "owner",
              "type": "address"
            },
            {
              "internalType": "uint256",
              "name": "price",
              "type": "uint256"
            },
            {
              "internalType": "bool",
              "name": "sold",
              "type": "bool"
            }
          ],
          "internalType": "struct NFTMarket.MarketItem[]",
          "name": "",
          "type": "tuple[]"
        }
      ],
      "stateMutability": "view",
      "type": "function"
    },
    {
      "inputs": [],
      "name": "getListingPrice",
      "outputs": [
        {
          "internalType": "uint256",
          "name": "",
          "type": "uint256"
        }
      ],
      "stateMutability": "view",
      "type": "function"
    },
    {
      "inputs": [],
      "name": "incrementListingPrice",
      "outputs": [],
      "stateMutability": "nonpayable",
      "type": "function"
    },
    {
      "inputs": [],
      "name": "initialize",
      "outputs": [],
      "stateMutability": "nonpayable",
      "type": "function"
    },
    {
      "inputs": [],
      "name": "owner",
      "outputs": [
        {
          "internalType": "address",
          "name": "",
          "type": "address"
        }
      ],
      "stateMutability": "view",
      "type": "function"
    },
    {
      "inputs": [],
      "name": "renounceOwnership",
      "outputs": [],
      "stateMutability": "nonpayable",
      "type": "function"
    },
    {
      "inputs": [
        {
          "internalType": "address",
          "name": "newOwner",
          "type": "address"
        }
      ],
      "name": "transferOwnership",
      "outputs": [],
      "stateMutability": "nonpayable",
      "type": "function"
    },
    {
      "inputs": [
        {
          "internalType": "address",
          "name": "lastBidder",
          "type": "address"
        },
        {
          "internalType": "uint256",
          "name": "lastbid",
          "type": "uint256"
        }
      ],
      "name": "updateBid",
      "outputs": [],
      "stateMutability": "payable",
      "type": "function"
    },
    {
      "inputs": [
        {
          "internalType": "address",
          "name": "newImplementation",
          "type": "address"
        }
      ],
      "name": "upgradeTo",
      "outputs": [],
      "stateMutability": "nonpayable",
      "type": "function"
    },
    {
      "inputs": [
        {
          "internalType": "address",
          "name": "newImplementation",
          "type": "address"
        },
        {
          "internalType": "bytes",
          "name": "data",
          "type": "bytes"
        }
      ],
      "name": "upgradeToAndCall",
      "outputs": [],
      "stateMutability": "payable",
      "type": "function"
    }
  ],
  "bytecode": "0x60a06040523060601b6080523480156200001857600080fd5b50600054610100900460ff16620000365760005460ff161562000040565b62000040620000e5565b620000a85760405162461bcd60e51b815260206004820152602e60248201527f496e697469616c697a61626c653a20636f6e747261637420697320616c72656160448201526d191e481a5b9a5d1a585b1a5e995960921b606482015260840160405180910390fd5b600054610100900460ff16158015620000cb576000805461ffff19166101011790555b8015620000de576000805461ff00191690555b5062000109565b6000620000fd306200010360201b620010781760201c565b15905090565b3b151590565b60805160601c611a076200013d6000396000818161070e0152818161074e015281816107d701526108170152611a076000f3fe6080604052600436106100dd5760003560e01c8063715018a61161007f578063bc91133911610059578063bc911339146101ed578063c23b139e14610202578063f064c32e14610215578063f2fde38b1461022a57600080fd5b8063715018a61461019b5780638129fc1c146101b05780638da5cb5b146101c557600080fd5b8063202e3740116100bb578063202e3740146101405780633659cfe6146101555780634f1ef2861461017557806358eb2df51461018857600080fd5b806305d6cf21146100e25780630f08efe0146100f757806312e8558514610122575b600080fd5b6100f56100f0366004611677565b61024a565b005b34801561010357600080fd5b5061010c610373565b60405161011991906116ee565b60405180910390f35b34801561012e57600080fd5b5060fd54604051908152602001610119565b34801561014c57600080fd5b5061010c61051c565b34801561016157600080fd5b506100f56101703660046115a0565b610703565b6100f56101833660046115ba565b6107cc565b6100f56101963660046116a0565b610886565b3480156101a757600080fd5b506100f5610aed565b3480156101bc57600080fd5b506100f5610b23565b3480156101d157600080fd5b5060c9546040516001600160a01b039091168152602001610119565b3480156101f957600080fd5b506100f5610bf6565b6100f5610210366004611677565b610c3e565b34801561022157600080fd5b5061010c610df9565b34801561023657600080fd5b506100f56102453660046115a0565b610fe0565b600260015414156102765760405162461bcd60e51b815260040161026d906118cd565b60405180910390fd5b60026001553481106102f2576040805162461bcd60e51b81526020600482015260248101919091527f506c65617365207375626d6974207468652061736b696e67207072696365206960448201527f6e206f7264657220746f20636f6d706c65746520746865207075726368617365606482015260840161026d565b60c9546001600160a01b03166108fc61030b833461191c565b6040518115909202916000818181858888f19350505050158015610333573d6000803e3d6000fd5b506040516001600160a01b0383169082156108fc029083906000818181858888f1935050505015801561036a573d6000803e3d6000fd5b50506001805550565b6060600061038060fb5490565b9050600061038d60fc5490565b60fb5461039a919061191c565b90506000808267ffffffffffffffff8111156103c657634e487b7160e01b600052604160045260246000fd5b6040519080825280602002602001820160405280156103ff57816020015b6103ec611548565b8152602001906001900390816103e45790505b50905060005b8481101561051357600060fe8161041d846001611904565b81526020810191909152604001600020600401546001600160a01b0316141561050157600061044d826001611904565b600081815260fe6020908152604091829020825160e0810184528154815260018201546001600160a01b039081169382019390935260028201549381019390935260038101548216606084015260048101549091166080830152600581015460a0830152600681015460ff16151560c08301528551929350918590879081106104e657634e487b7160e01b600052603260045260246000fd5b60209081029190910101526104fc600186611904565b945050505b8061050b81611963565b915050610405565b50949350505050565b6060600061052960fb5490565b905060008060005b8381101561058c573360fe6000610549846001611904565b81526020810191909152604001600020600401546001600160a01b0316141561057a57610577600184611904565b92505b8061058481611963565b915050610531565b5060008267ffffffffffffffff8111156105b657634e487b7160e01b600052604160045260246000fd5b6040519080825280602002602001820160405280156105ef57816020015b6105dc611548565b8152602001906001900390816105d45790505b50905060005b84811015610513573360fe600061060d846001611904565b81526020810191909152604001600020600401546001600160a01b031614156106f157600061063d826001611904565b600081815260fe6020908152604091829020825160e0810184528154815260018201546001600160a01b039081169382019390935260028201549381019390935260038101548216606084015260048101549091166080830152600581015460a0830152600681015460ff16151560c08301528551929350918590879081106106d657634e487b7160e01b600052603260045260246000fd5b60209081029190910101526106ec600186611904565b945050505b806106fb81611963565b9150506105f5565b306001600160a01b037f000000000000000000000000000000000000000000000000000000000000000016141561074c5760405162461bcd60e51b815260040161026d906117b5565b7f00000000000000000000000000000000000000000000000000000000000000006001600160a01b031661077e61107e565b6001600160a01b0316146107a45760405162461bcd60e51b815260040161026d90611801565b6107ad816110ac565b604080516000808252602082019092526107c9918391906110d6565b50565b306001600160a01b037f00000000000000000000000000000000000000000000000000000000000000001614156108155760405162461bcd60e51b815260040161026d906117b5565b7f00000000000000000000000000000000000000000000000000000000000000006001600160a01b031661084761107e565b6001600160a01b03161461086d5760405162461bcd60e51b815260040161026d90611801565b610876826110ac565b610882828260016110d6565b5050565b600260015414156108a95760405162461bcd60e51b815260040161026d906118cd565b6002600155806108fb5760405162461bcd60e51b815260206004820152601c60248201527f5072696365206d757374206265206174206c6561737420312077656900000000604482015260640161026d565b60fd5434146109585760405162461bcd60e51b8152602060048201526024808201527f5072696365206d75737420626520657175616c20746f206c697374696e6720706044820152637269636560e01b606482015260840161026d565b61096660fb80546001019055565b600061097160fb5490565b6040805160e0810182528281526001600160a01b0387811660208084018281528486018a8152336060870181815260006080890181815260a08a018e815260c08b018381528d845260fe909852918b902099518a55945160018a018054918a166001600160a01b0319928316179055935160028a015590516003890180549189169185169190911790559251600480890180549290981691909316179095559051600586015590516006909401805494151560ff199095169490941790935592516323b872dd60e01b81529182015230602482015260448101869052919250906323b872dd90606401600060405180830381600087803b158015610a7457600080fd5b505af1158015610a88573d6000803e3d6000fd5b505060408051338152600060208201819052818301879052606082015290518693506001600160a01b038816925084917f045dfa01dcba2b36aba1d3dc4a874f4b0c5d2fbeb8d2c4b34a7d88c8d8f929d1919081900360800190a45050600180555050565b60c9546001600160a01b03163314610b175760405162461bcd60e51b815260040161026d9061184d565b610b216000611221565b565b600054610100900460ff16610b3e5760005460ff1615610b42565b303b155b610ba55760405162461bcd60e51b815260206004820152602e60248201527f496e697469616c697a61626c653a20636f6e747261637420697320616c72656160448201526d191e481a5b9a5d1a585b1a5e995960921b606482015260840161026d565b600054610100900460ff16158015610bc7576000805461ffff19166101011790555b610bcf611273565b610bd76112aa565b6611c37937e0800060fd5580156107c9576000805461ff001916905550565b60fd54610c04906001611904565b60fd8190556040519081527f93fe6d397c74fdf1402a8b72e47b68512f0510d7b98a4bc4cbdf6ac7108b3c599060200160405180910390a1565b60026001541415610c615760405162461bcd60e51b815260040161026d906118cd565b60026001819055600082815260fe60205260408082206005810154938101546003909101549151909234926001600160a01b031691839181818185875af1925050503d8060008114610ccf576040519150601f19603f3d011682016040523d82523d6000602084013e610cd4565b606091505b50506040516323b872dd60e01b8152306004820152336024820152604481018490526001600160a01b03871691506323b872dd90606401600060405180830381600087803b158015610d2557600080fd5b505af1158015610d39573d6000803e3d6000fd5b505050600085815260fe602052604090206004810180546001600160a01b03191633179055600601805460ff1916600117905550610d7b60fc80546001019055565b6000610d8660fc5490565b60fb54610d93919061191c565b60408051600081523360208201529081018690526001606082015290915083906001600160a01b0388169087907ffeb04e399f6ba62d926a65372cbb5f11e3c7a9ff05e62948769d2ee5d5335b849060800160405180910390a450506001805550505050565b60606000610e0660fb5490565b905060008060005b83811015610e69573360fe6000610e26846001611904565b81526020810191909152604001600020600301546001600160a01b03161415610e5757610e54600184611904565b92505b80610e6181611963565b915050610e0e565b5060008267ffffffffffffffff811115610e9357634e487b7160e01b600052604160045260246000fd5b604051908082528060200260200182016040528015610ecc57816020015b610eb9611548565b815260200190600190039081610eb15790505b50905060005b84811015610513573360fe6000610eea846001611904565b81526020810191909152604001600020600301546001600160a01b03161415610fce576000610f1a826001611904565b600081815260fe6020908152604091829020825160e0810184528154815260018201546001600160a01b039081169382019390935260028201549381019390935260038101548216606084015260048101549091166080830152600581015460a0830152600681015460ff16151560c0830152855192935091859087908110610fb357634e487b7160e01b600052603260045260246000fd5b6020908102919091010152610fc9600186611904565b945050505b80610fd881611963565b915050610ed2565b60c9546001600160a01b0316331461100a5760405162461bcd60e51b815260040161026d9061184d565b6001600160a01b03811661106f5760405162461bcd60e51b815260206004820152602660248201527f4f776e61626c653a206e6577206f776e657220697320746865207a65726f206160448201526564647265737360d01b606482015260840161026d565b6107c981611221565b3b151590565b7f360894a13ba1a3210667c828492db98dca3e2076cc3735a920a3ca505d382bbc546001600160a01b031690565b60c9546001600160a01b031633146107c95760405162461bcd60e51b815260040161026d9061184d565b60006110e061107e565b90506110eb846112e1565b6000835111806110f85750815b15611109576111078484611386565b505b7f4910fdfa16fed3260ed0e7147f7cc6da11a60208b5b9406d12a635614ffd9143805460ff1661121a57805460ff191660011781556040516001600160a01b038316602482015261118890869060440160408051601f198184030181529190526020810180516001600160e01b0316631b2ce7f360e11b179052611386565b50805460ff1916815561119961107e565b6001600160a01b0316826001600160a01b0316146112115760405162461bcd60e51b815260206004820152602f60248201527f45524331393637557067726164653a207570677261646520627265616b73206660448201526e75727468657220757067726164657360881b606482015260840161026d565b61121a85611471565b5050505050565b60c980546001600160a01b038381166001600160a01b0319831681179093556040519116919082907f8be0079c531659141344cd1fd0a4f28419497f9722a3daafe3b4186f6b6457e090600090a35050565b600054610100900460ff1661129a5760405162461bcd60e51b815260040161026d90611882565b6112a26114b1565b610b216114d8565b600054610100900460ff166112d15760405162461bcd60e51b815260040161026d90611882565b6112d96114b1565b610b216114b1565b803b6113455760405162461bcd60e51b815260206004820152602d60248201527f455243313936373a206e657720696d706c656d656e746174696f6e206973206e60448201526c1bdd08184818dbdb9d1c9858dd609a1b606482015260840161026d565b7f360894a13ba1a3210667c828492db98dca3e2076cc3735a920a3ca505d382bbc80546001600160a01b0319166001600160a01b0392909216919091179055565b6060823b6113e55760405162461bcd60e51b815260206004820152602660248201527f416464726573733a2064656c65676174652063616c6c20746f206e6f6e2d636f6044820152651b9d1c9858dd60d21b606482015260840161026d565b600080846001600160a01b03168460405161140091906116d2565b600060405180830381855af49150503d806000811461143b576040519150601f19603f3d011682016040523d82523d6000602084013e611440565b606091505b509150915061146882826040518060600160405280602781526020016119ab60279139611508565b95945050505050565b61147a816112e1565b6040516001600160a01b038216907fbc7cd75a20ee27fd9adebab32041f755214dbc6bffa90cc0225b39da2e5c2d3b90600090a250565b600054610100900460ff16610b215760405162461bcd60e51b815260040161026d90611882565b600054610100900460ff166114ff5760405162461bcd60e51b815260040161026d90611882565b610b2133611221565b60608315611517575081611541565b8251156115275782518084602001fd5b8160405162461bcd60e51b815260040161026d9190611782565b9392505050565b6040805160e081018252600080825260208201819052918101829052606081018290526080810182905260a0810182905260c081019190915290565b80356001600160a01b038116811461159b57600080fd5b919050565b6000602082840312156115b1578081fd5b61154182611584565b600080604083850312156115cc578081fd5b6115d583611584565b9150602083013567ffffffffffffffff808211156115f1578283fd5b818501915085601f830112611604578283fd5b81358181111561161657611616611994565b604051601f8201601f19908116603f0116810190838211818310171561163e5761163e611994565b81604052828152886020848701011115611656578586fd5b82602086016020830137856020848301015280955050505050509250929050565b60008060408385031215611689578182fd5b61169283611584565b946020939093013593505050565b6000806000606084860312156116b4578081fd5b6116bd84611584565b95602085013595506040909401359392505050565b600082516116e4818460208701611933565b9190910192915050565b602080825282518282018190526000919060409081850190868401855b8281101561177557815180518552868101516001600160a01b039081168887015286820151878701526060808301518216908701526080808301519091169086015260a0808201519086015260c09081015115159085015260e0909301929085019060010161170b565b5091979650505050505050565b60208152600082518060208401526117a1816040850160208701611933565b601f01601f19169190910160400192915050565b6020808252602c908201527f46756e6374696f6e206d7573742062652063616c6c6564207468726f7567682060408201526b19195b1959d85d1958d85b1b60a21b606082015260800190565b6020808252602c908201527f46756e6374696f6e206d7573742062652063616c6c6564207468726f7567682060408201526b6163746976652070726f787960a01b606082015260800190565b6020808252818101527f4f776e61626c653a2063616c6c6572206973206e6f7420746865206f776e6572604082015260600190565b6020808252602b908201527f496e697469616c697a61626c653a20636f6e7472616374206973206e6f74206960408201526a6e697469616c697a696e6760a81b606082015260800190565b6020808252601f908201527f5265656e7472616e637947756172643a207265656e7472616e742063616c6c00604082015260600190565b600082198211156119175761191761197e565b500190565b60008282101561192e5761192e61197e565b500390565b60005b8381101561194e578181015183820152602001611936565b8381111561195d576000848401525b50505050565b60006000198214156119775761197761197e565b5060010190565b634e487b7160e01b600052601160045260246000fd5b634e487b7160e01b600052604160045260246000fdfe416464726573733a206c6f772d6c6576656c2064656c65676174652063616c6c206661696c6564a2646970667358221220816f17e257f45199cd69b1f791e7c9209c29f86ed63408828fe051aae156548764736f6c63430008040033",
  "linkReferences": {},
  "deployedLinkReferences": {}
}